{
  "address": "0x7D837442411DD6638edDD4B2eE37aFdEe5C50137",
  "abi": [
    {
      "inputs": [
        {
          "internalType": "address",
          "name": "_factory",
          "type": "address"
        },
        {
          "internalType": "address",
          "name": "_WETH",
          "type": "address"
        }
      ],
      "stateMutability": "nonpayable",
      "type": "constructor"
    },
    {
      "anonymous": false,
      "inputs": [
        {
          "indexed": true,
          "internalType": "address",
          "name": "previousOwner",
          "type": "address"
        },
        {
          "indexed": true,
          "internalType": "address",
          "name": "newOwner",
          "type": "address"
        }
      ],
      "name": "OwnershipTransferred",
      "type": "event"
    },
    {
      "inputs": [],
      "name": "WETH",
      "outputs": [
        {
          "internalType": "address",
          "name": "",
          "type": "address"
        }
      ],
      "stateMutability": "view",
      "type": "function"
    },
    {
      "inputs": [
        {
          "internalType": "address",
          "name": "tokenA",
          "type": "address"
        },
        {
          "internalType": "address",
          "name": "tokenB",
          "type": "address"
        },
        {
          "internalType": "uint256",
          "name": "amountADesired",
          "type": "uint256"
        },
        {
          "internalType": "uint256",
          "name": "amountBDesired",
          "type": "uint256"
        },
        {
          "internalType": "uint256",
          "name": "amountAMin",
          "type": "uint256"
        },
        {
          "internalType": "uint256",
          "name": "amountBMin",
          "type": "uint256"
        },
        {
          "internalType": "address",
          "name": "to",
          "type": "address"
        },
        {
          "internalType": "uint256",
          "name": "deadline",
          "type": "uint256"
        }
      ],
      "name": "addLiquidity",
      "outputs": [
        {
          "internalType": "uint256",
          "name": "amountA",
          "type": "uint256"
        },
        {
          "internalType": "uint256",
          "name": "amountB",
          "type": "uint256"
        },
        {
          "internalType": "uint256",
          "name": "liquidity",
          "type": "uint256"
        }
      ],
      "stateMutability": "nonpayable",
      "type": "function"
    },
    {
      "inputs": [
        {
          "internalType": "address",
          "name": "token",
          "type": "address"
        },
        {
          "internalType": "uint256",
          "name": "amountTokenDesired",
          "type": "uint256"
        },
        {
          "internalType": "uint256",
          "name": "amountTokenMin",
          "type": "uint256"
        },
        {
          "internalType": "uint256",
          "name": "amountETHMin",
          "type": "uint256"
        },
        {
          "internalType": "address",
          "name": "to",
          "type": "address"
        },
        {
          "internalType": "uint256",
          "name": "deadline",
          "type": "uint256"
        }
      ],
      "name": "addLiquidityETH",
      "outputs": [
        {
          "internalType": "uint256",
          "name": "amountToken",
          "type": "uint256"
        },
        {
          "internalType": "uint256",
          "name": "amountETH",
          "type": "uint256"
        },
        {
          "internalType": "uint256",
          "name": "liquidity",
          "type": "uint256"
        }
      ],
      "stateMutability": "payable",
      "type": "function"
    },
    {
      "inputs": [],
      "name": "factory",
      "outputs": [
        {
          "internalType": "address",
          "name": "",
          "type": "address"
        }
      ],
      "stateMutability": "view",
      "type": "function"
    },
    {
      "inputs": [
        {
          "internalType": "uint256",
          "name": "amountOut",
          "type": "uint256"
        },
        {
          "internalType": "uint256",
          "name": "reserveIn",
          "type": "uint256"
        },
        {
          "internalType": "uint256",
          "name": "reserveOut",
          "type": "uint256"
        },
        {
          "internalType": "uint256",
          "name": "swapFee",
          "type": "uint256"
        }
      ],
      "name": "getAmountIn",
      "outputs": [
        {
          "internalType": "uint256",
          "name": "amountIn",
          "type": "uint256"
        }
      ],
      "stateMutability": "pure",
      "type": "function"
    },
    {
      "inputs": [
        {
          "internalType": "uint256",
          "name": "amountIn",
          "type": "uint256"
        },
        {
          "internalType": "uint256",
          "name": "reserveIn",
          "type": "uint256"
        },
        {
          "internalType": "uint256",
          "name": "reserveOut",
          "type": "uint256"
        },
        {
          "internalType": "uint256",
          "name": "swapFee",
          "type": "uint256"
        }
      ],
      "name": "getAmountOut",
      "outputs": [
        {
          "internalType": "uint256",
          "name": "amountOut",
          "type": "uint256"
        }
      ],
      "stateMutability": "pure",
      "type": "function"
    },
    {
      "inputs": [
        {
          "internalType": "uint256",
          "name": "amountOut",
          "type": "uint256"
        },
        {
          "internalType": "address[]",
          "name": "path",
          "type": "address[]"
        }
      ],
      "name": "getAmountsIn",
      "outputs": [
        {
          "internalType": "uint256[]",
          "name": "amounts",
          "type": "uint256[]"
        }
      ],
      "stateMutability": "view",
      "type": "function"
    },
    {
      "inputs": [
        {
          "internalType": "uint256",
          "name": "amountIn",
          "type": "uint256"
        },
        {
          "internalType": "address[]",
          "name": "path",
          "type": "address[]"
        }
      ],
      "name": "getAmountsOut",
      "outputs": [
        {
          "internalType": "uint256[]",
          "name": "amounts",
          "type": "uint256[]"
        }
      ],
      "stateMutability": "view",
      "type": "function"
    },
    {
      "inputs": [],
      "name": "owner",
      "outputs": [
        {
          "internalType": "address",
          "name": "",
          "type": "address"
        }
      ],
      "stateMutability": "view",
      "type": "function"
    },
    {
      "inputs": [
        {
          "internalType": "uint256",
          "name": "amountA",
          "type": "uint256"
        },
        {
          "internalType": "uint256",
          "name": "reserveA",
          "type": "uint256"
        },
        {
          "internalType": "uint256",
          "name": "reserveB",
          "type": "uint256"
        }
      ],
      "name": "quote",
      "outputs": [
        {
          "internalType": "uint256",
          "name": "amountB",
          "type": "uint256"
        }
      ],
      "stateMutability": "pure",
      "type": "function"
    },
    {
      "inputs": [
        {
          "internalType": "address",
          "name": "tokenA",
          "type": "address"
        },
        {
          "internalType": "address",
          "name": "tokenB",
          "type": "address"
        },
        {
          "internalType": "uint256",
          "name": "liquidity",
          "type": "uint256"
        },
        {
          "internalType": "uint256",
          "name": "amountAMin",
          "type": "uint256"
        },
        {
          "internalType": "uint256",
          "name": "amountBMin",
          "type": "uint256"
        },
        {
          "internalType": "address",
          "name": "to",
          "type": "address"
        },
        {
          "internalType": "uint256",
          "name": "deadline",
          "type": "uint256"
        }
      ],
      "name": "removeLiquidity",
      "outputs": [
        {
          "internalType": "uint256",
          "name": "amountA",
          "type": "uint256"
        },
        {
          "internalType": "uint256",
          "name": "amountB",
          "type": "uint256"
        }
      ],
      "stateMutability": "nonpayable",
      "type": "function"
    },
    {
      "inputs": [
        {
          "internalType": "address",
          "name": "token",
          "type": "address"
        },
        {
          "internalType": "uint256",
          "name": "liquidity",
          "type": "uint256"
        },
        {
          "internalType": "uint256",
          "name": "amountTokenMin",
          "type": "uint256"
        },
        {
          "internalType": "uint256",
          "name": "amountETHMin",
          "type": "uint256"
        },
        {
          "internalType": "address",
          "name": "to",
          "type": "address"
        },
        {
          "internalType": "uint256",
          "name": "deadline",
          "type": "uint256"
        }
      ],
      "name": "removeLiquidityETH",
      "outputs": [
        {
          "internalType": "uint256",
          "name": "amountToken",
          "type": "uint256"
        },
        {
          "internalType": "uint256",
          "name": "amountETH",
          "type": "uint256"
        }
      ],
      "stateMutability": "nonpayable",
      "type": "function"
    },
    {
      "inputs": [
        {
          "internalType": "address",
          "name": "token",
          "type": "address"
        },
        {
          "internalType": "uint256",
          "name": "liquidity",
          "type": "uint256"
        },
        {
          "internalType": "uint256",
          "name": "amountTokenMin",
          "type": "uint256"
        },
        {
          "internalType": "uint256",
          "name": "amountETHMin",
          "type": "uint256"
        },
        {
          "internalType": "address",
          "name": "to",
          "type": "address"
        },
        {
          "internalType": "uint256",
          "name": "deadline",
          "type": "uint256"
        }
      ],
      "name": "removeLiquidityETHSupportingFeeOnTransferTokens",
      "outputs": [
        {
          "internalType": "uint256",
          "name": "amountETH",
          "type": "uint256"
        }
      ],
      "stateMutability": "nonpayable",
      "type": "function"
    },
    {
      "inputs": [
        {
          "internalType": "address",
          "name": "token",
          "type": "address"
        },
        {
          "internalType": "uint256",
          "name": "liquidity",
          "type": "uint256"
        },
        {
          "internalType": "uint256",
          "name": "amountTokenMin",
          "type": "uint256"
        },
        {
          "internalType": "uint256",
          "name": "amountETHMin",
          "type": "uint256"
        },
        {
          "internalType": "address",
          "name": "to",
          "type": "address"
        },
        {
          "internalType": "uint256",
          "name": "deadline",
          "type": "uint256"
        },
        {
          "internalType": "bool",
          "name": "approveMax",
          "type": "bool"
        },
        {
          "internalType": "uint8",
          "name": "v",
          "type": "uint8"
        },
        {
          "internalType": "bytes32",
          "name": "r",
          "type": "bytes32"
        },
        {
          "internalType": "bytes32",
          "name": "s",
          "type": "bytes32"
        }
      ],
      "name": "removeLiquidityETHWithPermit",
      "outputs": [
        {
          "internalType": "uint256",
          "name": "amountToken",
          "type": "uint256"
        },
        {
          "internalType": "uint256",
          "name": "amountETH",
          "type": "uint256"
        }
      ],
      "stateMutability": "nonpayable",
      "type": "function"
    },
    {
      "inputs": [
        {
          "internalType": "address",
          "name": "token",
          "type": "address"
        },
        {
          "internalType": "uint256",
          "name": "liquidity",
          "type": "uint256"
        },
        {
          "internalType": "uint256",
          "name": "amountTokenMin",
          "type": "uint256"
        },
        {
          "internalType": "uint256",
          "name": "amountETHMin",
          "type": "uint256"
        },
        {
          "internalType": "address",
          "name": "to",
          "type": "address"
        },
        {
          "internalType": "uint256",
          "name": "deadline",
          "type": "uint256"
        },
        {
          "internalType": "bool",
          "name": "approveMax",
          "type": "bool"
        },
        {
          "internalType": "uint8",
          "name": "v",
          "type": "uint8"
        },
        {
          "internalType": "bytes32",
          "name": "r",
          "type": "bytes32"
        },
        {
          "internalType": "bytes32",
          "name": "s",
          "type": "bytes32"
        }
      ],
      "name": "removeLiquidityETHWithPermitSupportingFeeOnTransferTokens",
      "outputs": [
        {
          "internalType": "uint256",
          "name": "amountETH",
          "type": "uint256"
        }
      ],
      "stateMutability": "nonpayable",
      "type": "function"
    },
    {
      "inputs": [
        {
          "internalType": "address",
          "name": "tokenA",
          "type": "address"
        },
        {
          "internalType": "address",
          "name": "tokenB",
          "type": "address"
        },
        {
          "internalType": "uint256",
          "name": "liquidity",
          "type": "uint256"
        },
        {
          "internalType": "uint256",
          "name": "amountAMin",
          "type": "uint256"
        },
        {
          "internalType": "uint256",
          "name": "amountBMin",
          "type": "uint256"
        },
        {
          "internalType": "address",
          "name": "to",
          "type": "address"
        },
        {
          "internalType": "uint256",
          "name": "deadline",
          "type": "uint256"
        },
        {
          "internalType": "bool",
          "name": "approveMax",
          "type": "bool"
        },
        {
          "internalType": "uint8",
          "name": "v",
          "type": "uint8"
        },
        {
          "internalType": "bytes32",
          "name": "r",
          "type": "bytes32"
        },
        {
          "internalType": "bytes32",
          "name": "s",
          "type": "bytes32"
        }
      ],
      "name": "removeLiquidityWithPermit",
      "outputs": [
        {
          "internalType": "uint256",
          "name": "amountA",
          "type": "uint256"
        },
        {
          "internalType": "uint256",
          "name": "amountB",
          "type": "uint256"
        }
      ],
      "stateMutability": "nonpayable",
      "type": "function"
    },
    {
      "inputs": [],
      "name": "renounceOwnership",
      "outputs": [],
      "stateMutability": "nonpayable",
      "type": "function"
    },
    {
      "inputs": [
        {
          "internalType": "address",
          "name": "_swapFeeReward",
          "type": "address"
        }
      ],
      "name": "setSwapFeeReward",
      "outputs": [],
      "stateMutability": "nonpayable",
      "type": "function"
    },
    {
      "inputs": [
        {
          "internalType": "uint256",
          "name": "amountOut",
          "type": "uint256"
        },
        {
          "internalType": "address[]",
          "name": "path",
          "type": "address[]"
        },
        {
          "internalType": "address",
          "name": "to",
          "type": "address"
        },
        {
          "internalType": "uint256",
          "name": "deadline",
          "type": "uint256"
        }
      ],
      "name": "swapETHForExactTokens",
      "outputs": [
        {
          "internalType": "uint256[]",
          "name": "amounts",
          "type": "uint256[]"
        }
      ],
      "stateMutability": "payable",
      "type": "function"
    },
    {
      "inputs": [
        {
          "internalType": "uint256",
          "name": "amountOutMin",
          "type": "uint256"
        },
        {
          "internalType": "address[]",
          "name": "path",
          "type": "address[]"
        },
        {
          "internalType": "address",
          "name": "to",
          "type": "address"
        },
        {
          "internalType": "uint256",
          "name": "deadline",
          "type": "uint256"
        }
      ],
      "name": "swapExactETHForTokens",
      "outputs": [
        {
          "internalType": "uint256[]",
          "name": "amounts",
          "type": "uint256[]"
        }
      ],
      "stateMutability": "payable",
      "type": "function"
    },
    {
      "inputs": [
        {
          "internalType": "uint256",
          "name": "amountOutMin",
          "type": "uint256"
        },
        {
          "internalType": "address[]",
          "name": "path",
          "type": "address[]"
        },
        {
          "internalType": "address",
          "name": "to",
          "type": "address"
        },
        {
          "internalType": "uint256",
          "name": "deadline",
          "type": "uint256"
        }
      ],
      "name": "swapExactETHForTokensSupportingFeeOnTransferTokens",
      "outputs": [],
      "stateMutability": "payable",
      "type": "function"
    },
    {
      "inputs": [
        {
          "internalType": "uint256",
          "name": "amountIn",
          "type": "uint256"
        },
        {
          "internalType": "uint256",
          "name": "amountOutMin",
          "type": "uint256"
        },
        {
          "internalType": "address[]",
          "name": "path",
          "type": "address[]"
        },
        {
          "internalType": "address",
          "name": "to",
          "type": "address"
        },
        {
          "internalType": "uint256",
          "name": "deadline",
          "type": "uint256"
        }
      ],
      "name": "swapExactTokensForETH",
      "outputs": [
        {
          "internalType": "uint256[]",
          "name": "amounts",
          "type": "uint256[]"
        }
      ],
      "stateMutability": "nonpayable",
      "type": "function"
    },
    {
      "inputs": [
        {
          "internalType": "uint256",
          "name": "amountIn",
          "type": "uint256"
        },
        {
          "internalType": "uint256",
          "name": "amountOutMin",
          "type": "uint256"
        },
        {
          "internalType": "address[]",
          "name": "path",
          "type": "address[]"
        },
        {
          "internalType": "address",
          "name": "to",
          "type": "address"
        },
        {
          "internalType": "uint256",
          "name": "deadline",
          "type": "uint256"
        }
      ],
      "name": "swapExactTokensForETHSupportingFeeOnTransferTokens",
      "outputs": [],
      "stateMutability": "nonpayable",
      "type": "function"
    },
    {
      "inputs": [
        {
          "internalType": "uint256",
          "name": "amountIn",
          "type": "uint256"
        },
        {
          "internalType": "uint256",
          "name": "amountOutMin",
          "type": "uint256"
        },
        {
          "internalType": "address[]",
          "name": "path",
          "type": "address[]"
        },
        {
          "internalType": "address",
          "name": "to",
          "type": "address"
        },
        {
          "internalType": "uint256",
          "name": "deadline",
          "type": "uint256"
        }
      ],
      "name": "swapExactTokensForTokens",
      "outputs": [
        {
          "internalType": "uint256[]",
          "name": "amounts",
          "type": "uint256[]"
        }
      ],
      "stateMutability": "nonpayable",
      "type": "function"
    },
    {
      "inputs": [
        {
          "internalType": "uint256",
          "name": "amountIn",
          "type": "uint256"
        },
        {
          "internalType": "uint256",
          "name": "amountOutMin",
          "type": "uint256"
        },
        {
          "internalType": "address[]",
          "name": "path",
          "type": "address[]"
        },
        {
          "internalType": "address",
          "name": "to",
          "type": "address"
        },
        {
          "internalType": "uint256",
          "name": "deadline",
          "type": "uint256"
        }
      ],
      "name": "swapExactTokensForTokensSupportingFeeOnTransferTokens",
      "outputs": [],
      "stateMutability": "nonpayable",
      "type": "function"
    },
    {
      "inputs": [],
      "name": "swapFeeReward",
      "outputs": [
        {
          "internalType": "address",
          "name": "",
          "type": "address"
        }
      ],
      "stateMutability": "view",
      "type": "function"
    },
    {
      "inputs": [
        {
          "internalType": "uint256",
          "name": "amountOut",
          "type": "uint256"
        },
        {
          "internalType": "uint256",
          "name": "amountInMax",
          "type": "uint256"
        },
        {
          "internalType": "address[]",
          "name": "path",
          "type": "address[]"
        },
        {
          "internalType": "address",
          "name": "to",
          "type": "address"
        },
        {
          "internalType": "uint256",
          "name": "deadline",
          "type": "uint256"
        }
      ],
      "name": "swapTokensForExactETH",
      "outputs": [
        {
          "internalType": "uint256[]",
          "name": "amounts",
          "type": "uint256[]"
        }
      ],
      "stateMutability": "nonpayable",
      "type": "function"
    },
    {
      "inputs": [
        {
          "internalType": "uint256",
          "name": "amountOut",
          "type": "uint256"
        },
        {
          "internalType": "uint256",
          "name": "amountInMax",
          "type": "uint256"
        },
        {
          "internalType": "address[]",
          "name": "path",
          "type": "address[]"
        },
        {
          "internalType": "address",
          "name": "to",
          "type": "address"
        },
        {
          "internalType": "uint256",
          "name": "deadline",
          "type": "uint256"
        }
      ],
      "name": "swapTokensForExactTokens",
      "outputs": [
        {
          "internalType": "uint256[]",
          "name": "amounts",
          "type": "uint256[]"
        }
      ],
      "stateMutability": "nonpayable",
      "type": "function"
    },
    {
      "inputs": [
        {
          "internalType": "address",
          "name": "newOwner",
          "type": "address"
        }
      ],
      "name": "transferOwnership",
      "outputs": [],
      "stateMutability": "nonpayable",
      "type": "function"
    },
    {
      "stateMutability": "payable",
      "type": "receive"
    }
  ],
  "transactionHash": "0xe48e4ad380254a0261eff3687e990af68a9f70196753bf2e7b96691edeb691fc",
  "args": [
    "0x74aFf57D2Be4787b79A946113eeba4faF61ac3f8",
    "0x052C6B2e836F4709ed13Fdf7ACa15D098Fe1eEF5"
  ],
  "numDeployments": 1,
  "solcInputHash": "5e9b58620231b47f109eeedc709a8296",
  "bytecode": "0x60c06040523480156200001157600080fd5b5060405162005f9438038062005f94833981810160405260408110156200003757600080fd5b5080516020909101516000620000556001600160e01b03620000be16565b600080546001600160a01b0319166001600160a01b0383169081178255604051929350917f8be0079c531659141344cd1fd0a4f28419497f9722a3daafe3b4186f6b6457e0908290a3506001600160601b0319606092831b8116608052911b1660a052620000c2565b3390565b60805160601c60a05160601c615da4620001f0600039806101e35280610f5f5280610f9a52806110c2528061138552806117df52806119e8528061203052806121b45280612284528061238b528061253e52806125d352806128b0528061295f5280612a345280612b395280612c215280612ca252806133315280613704528061375a528061378e528061380f5280613a295280613bd95280613c6e5250806111b452806112b252806114585280611491528061163c52806118d152806119c65280611bb35280612471528061261252806127ae5280612ce1528061302452806132b652806132df528061330f52806134ec52806137385280613b0f5280613cad528061479c52806147df5280614dcf5280615100528061555b528061563c52806156bc5250615da46000f3fe6080604052600436106101c65760003560e01c80638da5cb5b116100f7578063c45a015511610095578063f2fde38b11610064578063f2fde38b14610d80578063f305d71914610dc0578063fb3bdb4114610e13578063fbbeedf114610ea65761020c565b8063c45a015514610ba7578063d06ca61f14610bbc578063ded9382a14610c73578063e8e3370014610cf35761020c565b8063ad615dec116100d1578063ad615dec14610a14578063af2979eb14610a4a578063b6f9de9514610aaa578063baa2abde14610b3d5761020c565b80638da5cb5b146109ac578063a3ddb30b146109ea578063ad5c4648146109ff5761020c565b8063571fd01211610164578063715018a61161013e578063715018a6146107ba578063791ac947146107cf5780637ff36ab5146108745780638803dbee146109075761020c565b8063571fd012146106595780635b0d5984146106955780635c11d795146107155761020c565b80632195995c116101a05780632195995c1461043657806338ed1739146104c15780634a25d94a1461056657806352707d8c1461060b5761020c565b806302751cec1461021157806318cbafe51461028a5780631f00ca741461037f5761020c565b3661020c573373ffffffffffffffffffffffffffffffffffffffff7f0000000000000000000000000000000000000000000000000000000000000000161461020a57fe5b005b600080fd5b34801561021d57600080fd5b50610271600480360360c081101561023457600080fd5b5073ffffffffffffffffffffffffffffffffffffffff81358116916020810135916040820135916060810135916080820135169060a00135610ee6565b6040805192835260208301919091528051918290030190f35b34801561029657600080fd5b5061032f600480360360a08110156102ad57600080fd5b8135916020810135918101906060810160408201356401000000008111156102d457600080fd5b8201836020820111156102e657600080fd5b8035906020019184602083028401116401000000008311171561030857600080fd5b919350915073ffffffffffffffffffffffffffffffffffffffff8135169060200135611039565b60408051602080825283518183015283519192839290830191858101910280838360005b8381101561036b578181015183820152602001610353565b505050509050019250505060405180910390f35b34801561038b57600080fd5b5061032f600480360360408110156103a257600080fd5b813591908101906040810160208201356401000000008111156103c457600080fd5b8201836020820111156103d657600080fd5b803590602001918460208302840111640100000000831117156103f857600080fd5b919080806020026020016040519081016040528093929190818152602001838360200280828437600092019190915250929550611451945050505050565b34801561044257600080fd5b50610271600480360361016081101561045a57600080fd5b5073ffffffffffffffffffffffffffffffffffffffff8135811691602081013582169160408201359160608101359160808201359160a08101359091169060c08101359060e081013515159060ff6101008201351690610120810135906101400135611487565b3480156104cd57600080fd5b5061032f600480360360a08110156104e457600080fd5b81359160208101359181019060608101604082013564010000000081111561050b57600080fd5b82018360208201111561051d57600080fd5b8035906020019184602083028401116401000000008311171561053f57600080fd5b919350915073ffffffffffffffffffffffffffffffffffffffff81351690602001356115c5565b34801561057257600080fd5b5061032f600480360360a081101561058957600080fd5b8135916020810135918101906060810160408201356401000000008111156105b057600080fd5b8201836020820111156105c257600080fd5b803590602001918460208302840111640100000000831117156105e457600080fd5b919350915073ffffffffffffffffffffffffffffffffffffffff8135169060200135611756565b34801561061757600080fd5b506106476004803603608081101561062e57600080fd5b5080359060208101359060408101359060600135611999565b60408051918252519081900360200190f35b34801561066557600080fd5b506106476004803603608081101561067c57600080fd5b50803590602081013590604081013590606001356119b0565b3480156106a157600080fd5b5061064760048036036101408110156106b957600080fd5b5073ffffffffffffffffffffffffffffffffffffffff81358116916020810135916040820135916060810135916080820135169060a08101359060c081013515159060ff60e082013516906101008101359061012001356119be565b34801561072157600080fd5b5061020a600480360360a081101561073857600080fd5b81359160208101359181019060608101604082013564010000000081111561075f57600080fd5b82018360208201111561077157600080fd5b8035906020019184602083028401116401000000008311171561079357600080fd5b919350915073ffffffffffffffffffffffffffffffffffffffff8135169060200135611b10565b3480156107c657600080fd5b5061020a611ea9565b3480156107db57600080fd5b5061020a600480360360a08110156107f257600080fd5b81359160208101359181019060608101604082013564010000000081111561081957600080fd5b82018360208201111561082b57600080fd5b8035906020019184602083028401116401000000008311171561084d57600080fd5b919350915073ffffffffffffffffffffffffffffffffffffffff8135169060200135611fa9565b61032f6004803603608081101561088a57600080fd5b813591908101906040810160208201356401000000008111156108ac57600080fd5b8201836020820111156108be57600080fd5b803590602001918460208302840111640100000000831117156108e057600080fd5b919350915073ffffffffffffffffffffffffffffffffffffffff8135169060200135612317565b34801561091357600080fd5b5061032f600480360360a081101561092a57600080fd5b81359160208101359181019060608101604082013564010000000081111561095157600080fd5b82018360208201111561096357600080fd5b8035906020019184602083028401116401000000008311171561098557600080fd5b919350915073ffffffffffffffffffffffffffffffffffffffff8135169060200135612737565b3480156109b857600080fd5b506109c1612876565b6040805173ffffffffffffffffffffffffffffffffffffffff9092168252519081900360200190f35b3480156109f657600080fd5b506109c1612892565b348015610a0b57600080fd5b506109c16128ae565b348015610a2057600080fd5b5061064760048036036060811015610a3757600080fd5b50803590602081013590604001356128d2565b348015610a5657600080fd5b50610647600480360360c0811015610a6d57600080fd5b5073ffffffffffffffffffffffffffffffffffffffff81358116916020810135916040820135916060810135916080820135169060a001356128e7565b61020a60048036036080811015610ac057600080fd5b81359190810190604081016020820135640100000000811115610ae257600080fd5b820183602082011115610af457600080fd5b80359060200191846020830284011164010000000083111715610b1657600080fd5b919350915073ffffffffffffffffffffffffffffffffffffffff8135169060200135612ac7565b348015610b4957600080fd5b50610271600480360360e0811015610b6057600080fd5b5073ffffffffffffffffffffffffffffffffffffffff8135811691602081013582169160408201359160608101359160808201359160a08101359091169060c00135612faa565b348015610bb357600080fd5b506109c16132b4565b348015610bc857600080fd5b5061032f60048036036040811015610bdf57600080fd5b81359190810190604081016020820135640100000000811115610c0157600080fd5b820183602082011115610c1357600080fd5b80359060200191846020830284011164010000000083111715610c3557600080fd5b9190808060200260200160405190810160405280939291908181526020018383602002808284376000920191909152509295506132d8945050505050565b348015610c7f57600080fd5b506102716004803603610140811015610c9757600080fd5b5073ffffffffffffffffffffffffffffffffffffffff81358116916020810135916040820135916060810135916080820135169060a08101359060c081013515159060ff60e08201351690610100810135906101200135613305565b348015610cff57600080fd5b50610d626004803603610100811015610d1757600080fd5b5073ffffffffffffffffffffffffffffffffffffffff8135811691602081013582169160408201359160608101359160808201359160a08101359160c0820135169060e0013561345d565b60408051938452602084019290925282820152519081900360600190f35b348015610d8c57600080fd5b5061020a60048036036020811015610da357600080fd5b503573ffffffffffffffffffffffffffffffffffffffff166135ec565b610d62600480360360c0811015610dd657600080fd5b5073ffffffffffffffffffffffffffffffffffffffff81358116916020810135916040820135916060810135916080820135169060a00135613689565b61032f60048036036080811015610e2957600080fd5b81359190810190604081016020820135640100000000811115610e4b57600080fd5b820183602082011115610e5d57600080fd5b80359060200191846020830284011164010000000083111715610e7f57600080fd5b919350915073ffffffffffffffffffffffffffffffffffffffff81351690602001356139b5565b348015610eb257600080fd5b5061020a60048036036020811015610ec957600080fd5b503573ffffffffffffffffffffffffffffffffffffffff16613e04565b6000808242811015610f5957604080517f08c379a000000000000000000000000000000000000000000000000000000000815260206004820152601560248201527f57696e657279526f757465723a20455850495245440000000000000000000000604482015290519081900360640190fd5b610f88897f00000000000000000000000000000000000000000000000000000000000000008a8a8a308a612faa565b9093509150610f98898685613edc565b7f000000000000000000000000000000000000000000000000000000000000000073ffffffffffffffffffffffffffffffffffffffff16632e1a7d4d836040518263ffffffff1660e01b815260040180828152602001915050600060405180830381600087803b15801561100b57600080fd5b505af115801561101f573d6000803e3d6000fd5b5050505061102d85836140a3565b50965096945050505050565b606081428110156110ab57604080517f08c379a000000000000000000000000000000000000000000000000000000000815260206004820152601560248201527f57696e657279526f757465723a20455850495245440000000000000000000000604482015290519081900360640190fd5b73ffffffffffffffffffffffffffffffffffffffff7f00000000000000000000000000000000000000000000000000000000000000001686867fffffffffffffffffffffffffffffffffffffffffffffffffffffffffffffffff810181811061111057fe5b9050602002013573ffffffffffffffffffffffffffffffffffffffff1673ffffffffffffffffffffffffffffffffffffffff16146111af57604080517f08c379a000000000000000000000000000000000000000000000000000000000815260206004820152601a60248201527f57696e657279526f757465723a20494e56414c49445f50415448000000000000604482015290519081900360640190fd5b61120d7f0000000000000000000000000000000000000000000000000000000000000000898888808060200260200160405190810160405280939291908181526020018383602002808284376000920191909152506141e092505050565b9150868260018451038151811061122057fe5b6020026020010151101561127f576040517f08c379a0000000000000000000000000000000000000000000000000000000008152600401808060200182810382526028815260200180615d476028913960400191505060405180910390fd5b6113448686600081811061128f57fe5b9050602002013573ffffffffffffffffffffffffffffffffffffffff163361132a7f00000000000000000000000000000000000000000000000000000000000000008a8a60008181106112de57fe5b9050602002013573ffffffffffffffffffffffffffffffffffffffff168b8b600181811061130857fe5b9050602002013573ffffffffffffffffffffffffffffffffffffffff16614380565b8560008151811061133757fe5b602002602001015161442d565b611383828787808060200260200160405190810160405280939291908181526020018383602002808284376000920191909152503092506145fd915050565b7f000000000000000000000000000000000000000000000000000000000000000073ffffffffffffffffffffffffffffffffffffffff16632e1a7d4d836001855103815181106113cf57fe5b60200260200101516040518263ffffffff1660e01b815260040180828152602001915050600060405180830381600087803b15801561140d57600080fd5b505af1158015611421573d6000803e3d6000fd5b50505050611446848360018551038151811061143957fe5b60200260200101516140a3565b509695505050505050565b606061147e7f0000000000000000000000000000000000000000000000000000000000000000848461495a565b90505b92915050565b60008060006114b77f00000000000000000000000000000000000000000000000000000000000000008f8f614380565b90506000876114c6578c6114e8565b7fffffffffffffffffffffffffffffffffffffffffffffffffffffffffffffffff5b604080517fd505accf00000000000000000000000000000000000000000000000000000000815233600482015230602482015260448101839052606481018c905260ff8a16608482015260a4810189905260c48101889052905191925073ffffffffffffffffffffffffffffffffffffffff84169163d505accf9160e48082019260009290919082900301818387803b15801561158457600080fd5b505af1158015611598573d6000803e3d6000fd5b505050506115ab8f8f8f8f8f8f8f612faa565b809450819550505050509b509b9950505050505050505050565b6060814281101561163757604080517f08c379a000000000000000000000000000000000000000000000000000000000815260206004820152601560248201527f57696e657279526f757465723a20455850495245440000000000000000000000604482015290519081900360640190fd5b6116957f0000000000000000000000000000000000000000000000000000000000000000898888808060200260200160405190810160405280939291908181526020018383602002808284376000920191909152506141e092505050565b915086826001845103815181106116a857fe5b60200260200101511015611707576040517f08c379a0000000000000000000000000000000000000000000000000000000008152600401808060200182810382526028815260200180615d476028913960400191505060405180910390fd5b6117178686600081811061128f57fe5b611446828787808060200260200160405190810160405280939291908181526020018383602002808284376000920191909152508992506145fd915050565b606081428110156117c857604080517f08c379a000000000000000000000000000000000000000000000000000000000815260206004820152601560248201527f57696e657279526f757465723a20455850495245440000000000000000000000604482015290519081900360640190fd5b73ffffffffffffffffffffffffffffffffffffffff7f00000000000000000000000000000000000000000000000000000000000000001686867fffffffffffffffffffffffffffffffffffffffffffffffffffffffffffffffff810181811061182d57fe5b9050602002013573ffffffffffffffffffffffffffffffffffffffff1673ffffffffffffffffffffffffffffffffffffffff16146118cc57604080517f08c379a000000000000000000000000000000000000000000000000000000000815260206004820152601a60248201527f57696e657279526f757465723a20494e56414c49445f50415448000000000000604482015290519081900360640190fd5b61192a7f00000000000000000000000000000000000000000000000000000000000000008988888080602002602001604051908101604052809392919081815260200183836020028082843760009201919091525061495a92505050565b9150868260008151811061193a57fe5b6020026020010151111561127f576040517f08c379a0000000000000000000000000000000000000000000000000000000008152600401808060200182810382526024815260200180615c3e6024913960400191505060405180910390fd5b60006119a785858585614b0f565b95945050505050565b60006119a785858585614c44565b600080611a0c7f00000000000000000000000000000000000000000000000000000000000000008d7f0000000000000000000000000000000000000000000000000000000000000000614380565b9050600086611a1b578b611a3d565b7fffffffffffffffffffffffffffffffffffffffffffffffffffffffffffffffff5b604080517fd505accf00000000000000000000000000000000000000000000000000000000815233600482015230602482015260448101839052606481018b905260ff8916608482015260a4810188905260c48101879052905191925073ffffffffffffffffffffffffffffffffffffffff84169163d505accf9160e48082019260009290919082900301818387803b158015611ad957600080fd5b505af1158015611aed573d6000803e3d6000fd5b50505050611aff8d8d8d8d8d8d6128e7565b9d9c50505050505050505050505050565b8042811015611b8057604080517f08c379a000000000000000000000000000000000000000000000000000000000815260206004820152601560248201527f57696e657279526f757465723a20455850495245440000000000000000000000604482015290519081900360640190fd5b611c0f85856000818110611b9057fe5b9050602002013573ffffffffffffffffffffffffffffffffffffffff1633611c097f000000000000000000000000000000000000000000000000000000000000000089896000818110611bdf57fe5b9050602002013573ffffffffffffffffffffffffffffffffffffffff168a8a600181811061130857fe5b8a61442d565b600085857fffffffffffffffffffffffffffffffffffffffffffffffffffffffffffffffff8101818110611c3f57fe5b9050602002013573ffffffffffffffffffffffffffffffffffffffff1673ffffffffffffffffffffffffffffffffffffffff166370a08231856040518263ffffffff1660e01b8152600401808273ffffffffffffffffffffffffffffffffffffffff1673ffffffffffffffffffffffffffffffffffffffff16815260200191505060206040518083038186803b158015611cd857600080fd5b505afa158015611cec573d6000803e3d6000fd5b505050506040513d6020811015611d0257600080fd5b50516040805160208881028281018201909352888252929350611d44929091899189918291850190849080828437600092019190915250889250614d78915050565b86611e488288887fffffffffffffffffffffffffffffffffffffffffffffffffffffffffffffffff8101818110611d7757fe5b9050602002013573ffffffffffffffffffffffffffffffffffffffff1673ffffffffffffffffffffffffffffffffffffffff166370a08231886040518263ffffffff1660e01b8152600401808273ffffffffffffffffffffffffffffffffffffffff1673ffffffffffffffffffffffffffffffffffffffff16815260200191505060206040518083038186803b158015611e1057600080fd5b505afa158015611e24573d6000803e3d6000fd5b505050506040513d6020811015611e3a57600080fd5b50519063ffffffff61525b16565b1015611e9f576040517f08c379a0000000000000000000000000000000000000000000000000000000008152600401808060200182810382526028815260200180615d476028913960400191505060405180910390fd5b5050505050505050565b611eb16152cd565b60005473ffffffffffffffffffffffffffffffffffffffff908116911614611f3a57604080517f08c379a000000000000000000000000000000000000000000000000000000000815260206004820181905260248201527f4f776e61626c653a2063616c6c6572206973206e6f7420746865206f776e6572604482015290519081900360640190fd5b6000805460405173ffffffffffffffffffffffffffffffffffffffff909116907f8be0079c531659141344cd1fd0a4f28419497f9722a3daafe3b4186f6b6457e0908390a3600080547fffffffffffffffffffffffff0000000000000000000000000000000000000000169055565b804281101561201957604080517f08c379a000000000000000000000000000000000000000000000000000000000815260206004820152601560248201527f57696e657279526f757465723a20455850495245440000000000000000000000604482015290519081900360640190fd5b73ffffffffffffffffffffffffffffffffffffffff7f00000000000000000000000000000000000000000000000000000000000000001685857fffffffffffffffffffffffffffffffffffffffffffffffffffffffffffffffff810181811061207e57fe5b9050602002013573ffffffffffffffffffffffffffffffffffffffff1673ffffffffffffffffffffffffffffffffffffffff161461211d57604080517f08c379a000000000000000000000000000000000000000000000000000000000815260206004820152601a60248201527f57696e657279526f757465723a20494e56414c49445f50415448000000000000604482015290519081900360640190fd5b61212d85856000818110611b9057fe5b61216b858580806020026020016040519081016040528093929190818152602001838360200280828437600092019190915250309250614d78915050565b604080517f70a08231000000000000000000000000000000000000000000000000000000008152306004820152905160009173ffffffffffffffffffffffffffffffffffffffff7f000000000000000000000000000000000000000000000000000000000000000016916370a0823191602480820192602092909190829003018186803b1580156121fb57600080fd5b505afa15801561220f573d6000803e3d6000fd5b505050506040513d602081101561222557600080fd5b5051905086811015612282576040517f08c379a0000000000000000000000000000000000000000000000000000000008152600401808060200182810382526028815260200180615d476028913960400191505060405180910390fd5b7f000000000000000000000000000000000000000000000000000000000000000073ffffffffffffffffffffffffffffffffffffffff16632e1a7d4d826040518263ffffffff1660e01b815260040180828152602001915050600060405180830381600087803b1580156122f557600080fd5b505af1158015612309573d6000803e3d6000fd5b50505050611e9f84826140a3565b6060814281101561238957604080517f08c379a000000000000000000000000000000000000000000000000000000000815260206004820152601560248201527f57696e657279526f757465723a20455850495245440000000000000000000000604482015290519081900360640190fd5b7f000000000000000000000000000000000000000000000000000000000000000073ffffffffffffffffffffffffffffffffffffffff16868660008181106123cd57fe5b9050602002013573ffffffffffffffffffffffffffffffffffffffff1673ffffffffffffffffffffffffffffffffffffffff161461246c57604080517f08c379a000000000000000000000000000000000000000000000000000000000815260206004820152601a60248201527f57696e657279526f757465723a20494e56414c49445f50415448000000000000604482015290519081900360640190fd5b6124ca7f0000000000000000000000000000000000000000000000000000000000000000348888808060200260200160405190810160405280939291908181526020018383602002808284376000920191909152506141e092505050565b915086826001845103815181106124dd57fe5b6020026020010151101561253c576040517f08c379a0000000000000000000000000000000000000000000000000000000008152600401808060200182810382526028815260200180615d476028913960400191505060405180910390fd5b7f000000000000000000000000000000000000000000000000000000000000000073ffffffffffffffffffffffffffffffffffffffff1663d0e30db08360008151811061258557fe5b60200260200101516040518263ffffffff1660e01b81526004016000604051808303818588803b1580156125b857600080fd5b505af11580156125cc573d6000803e3d6000fd5b50505050507f000000000000000000000000000000000000000000000000000000000000000073ffffffffffffffffffffffffffffffffffffffff1663a9059cbb61263e7f000000000000000000000000000000000000000000000000000000000000000089896000818110611bdf57fe5b8460008151811061264b57fe5b60200260200101516040518363ffffffff1660e01b8152600401808373ffffffffffffffffffffffffffffffffffffffff1673ffffffffffffffffffffffffffffffffffffffff16815260200182815260200192505050602060405180830381600087803b1580156126bc57600080fd5b505af11580156126d0573d6000803e3d6000fd5b505050506040513d60208110156126e657600080fd5b50516126ee57fe5b61272d828787808060200260200160405190810160405280939291908181526020018383602002808284376000920191909152508992506145fd915050565b5095945050505050565b606081428110156127a957604080517f08c379a000000000000000000000000000000000000000000000000000000000815260206004820152601560248201527f57696e657279526f757465723a20455850495245440000000000000000000000604482015290519081900360640190fd5b6128077f00000000000000000000000000000000000000000000000000000000000000008988888080602002602001604051908101604052809392919081815260200183836020028082843760009201919091525061495a92505050565b9150868260008151811061281757fe5b60200260200101511115611707576040517f08c379a0000000000000000000000000000000000000000000000000000000008152600401808060200182810382526024815260200180615c3e6024913960400191505060405180910390fd5b60005473ffffffffffffffffffffffffffffffffffffffff1690565b60015473ffffffffffffffffffffffffffffffffffffffff1681565b7f000000000000000000000000000000000000000000000000000000000000000081565b60006128df8484846152d1565b949350505050565b6000814281101561295957604080517f08c379a000000000000000000000000000000000000000000000000000000000815260206004820152601560248201527f57696e657279526f757465723a20455850495245440000000000000000000000604482015290519081900360640190fd5b612988887f00000000000000000000000000000000000000000000000000000000000000008989893089612faa565b604080517f70a082310000000000000000000000000000000000000000000000000000000081523060048201529051919450612a3292508a91879173ffffffffffffffffffffffffffffffffffffffff8416916370a0823191602480820192602092909190829003018186803b158015612a0157600080fd5b505afa158015612a15573d6000803e3d6000fd5b505050506040513d6020811015612a2b57600080fd5b5051613edc565b7f000000000000000000000000000000000000000000000000000000000000000073ffffffffffffffffffffffffffffffffffffffff16632e1a7d4d836040518263ffffffff1660e01b815260040180828152602001915050600060405180830381600087803b158015612aa557600080fd5b505af1158015612ab9573d6000803e3d6000fd5b5050505061144684836140a3565b8042811015612b3757604080517f08c379a000000000000000000000000000000000000000000000000000000000815260206004820152601560248201527f57696e657279526f757465723a20455850495245440000000000000000000000604482015290519081900360640190fd5b7f000000000000000000000000000000000000000000000000000000000000000073ffffffffffffffffffffffffffffffffffffffff1685856000818110612b7b57fe5b9050602002013573ffffffffffffffffffffffffffffffffffffffff1673ffffffffffffffffffffffffffffffffffffffff1614612c1a57604080517f08c379a000000000000000000000000000000000000000000000000000000000815260206004820152601a60248201527f57696e657279526f757465723a20494e56414c49445f50415448000000000000604482015290519081900360640190fd5b60003490507f000000000000000000000000000000000000000000000000000000000000000073ffffffffffffffffffffffffffffffffffffffff1663d0e30db0826040518263ffffffff1660e01b81526004016000604051808303818588803b158015612c8757600080fd5b505af1158015612c9b573d6000803e3d6000fd5b50505050507f000000000000000000000000000000000000000000000000000000000000000073ffffffffffffffffffffffffffffffffffffffff1663a9059cbb612d0d7f000000000000000000000000000000000000000000000000000000000000000089896000818110611bdf57fe5b836040518363ffffffff1660e01b8152600401808373ffffffffffffffffffffffffffffffffffffffff1673ffffffffffffffffffffffffffffffffffffffff16815260200182815260200192505050602060405180830381600087803b158015612d7757600080fd5b505af1158015612d8b573d6000803e3d6000fd5b505050506040513d6020811015612da157600080fd5b5051612da957fe5b600086867fffffffffffffffffffffffffffffffffffffffffffffffffffffffffffffffff8101818110612dd957fe5b9050602002013573ffffffffffffffffffffffffffffffffffffffff1673ffffffffffffffffffffffffffffffffffffffff166370a08231866040518263ffffffff1660e01b8152600401808273ffffffffffffffffffffffffffffffffffffffff1673ffffffffffffffffffffffffffffffffffffffff16815260200191505060206040518083038186803b158015612e7257600080fd5b505afa158015612e86573d6000803e3d6000fd5b505050506040513d6020811015612e9c57600080fd5b50516040805160208981028281018201909352898252929350612ede9290918a918a918291850190849080828437600092019190915250899250614d78915050565b87611e488289897fffffffffffffffffffffffffffffffffffffffffffffffffffffffffffffffff8101818110612f1157fe5b9050602002013573ffffffffffffffffffffffffffffffffffffffff1673ffffffffffffffffffffffffffffffffffffffff166370a08231896040518263ffffffff1660e01b8152600401808273ffffffffffffffffffffffffffffffffffffffff1673ffffffffffffffffffffffffffffffffffffffff16815260200191505060206040518083038186803b158015611e1057600080fd5b600080824281101561301d57604080517f08c379a000000000000000000000000000000000000000000000000000000000815260206004820152601560248201527f57696e657279526f757465723a20455850495245440000000000000000000000604482015290519081900360640190fd5b600061304a7f00000000000000000000000000000000000000000000000000000000000000008c8c614380565b604080517f23b872dd00000000000000000000000000000000000000000000000000000000815233600482015273ffffffffffffffffffffffffffffffffffffffff831660248201819052604482018d9052915192935090916323b872dd916064808201926020929091908290030181600087803b1580156130cb57600080fd5b505af11580156130df573d6000803e3d6000fd5b505050506040513d60208110156130f557600080fd5b5050604080517f89afcb4400000000000000000000000000000000000000000000000000000000815273ffffffffffffffffffffffffffffffffffffffff888116600483015282516000938493928616926389afcb44926024808301939282900301818787803b15801561316857600080fd5b505af115801561317c573d6000803e3d6000fd5b505050506040513d604081101561319257600080fd5b508051602090910151909250905060006131ac8e8e6153b1565b5090508073ffffffffffffffffffffffffffffffffffffffff168e73ffffffffffffffffffffffffffffffffffffffff16146131e95781836131ec565b82825b90975095508a87101561324a576040517f08c379a0000000000000000000000000000000000000000000000000000000008152600401808060200182810382526023815260200180615bb66023913960400191505060405180910390fd5b898610156132a3576040517f08c379a0000000000000000000000000000000000000000000000000000000008152600401808060200182810382526023815260200180615cd56023913960400191505060405180910390fd5b505050505097509795505050505050565b7f000000000000000000000000000000000000000000000000000000000000000081565b606061147e7f000000000000000000000000000000000000000000000000000000000000000084846141e0565b60008060006133557f00000000000000000000000000000000000000000000000000000000000000008e7f0000000000000000000000000000000000000000000000000000000000000000614380565b9050600087613364578c613386565b7fffffffffffffffffffffffffffffffffffffffffffffffffffffffffffffffff5b604080517fd505accf00000000000000000000000000000000000000000000000000000000815233600482015230602482015260448101839052606481018c905260ff8a16608482015260a4810189905260c48101889052905191925073ffffffffffffffffffffffffffffffffffffffff84169163d505accf9160e48082019260009290919082900301818387803b15801561342257600080fd5b505af1158015613436573d6000803e3d6000fd5b505050506134488e8e8e8e8e8e610ee6565b909f909e509c50505050505050505050505050565b600080600083428110156134d257604080517f08c379a000000000000000000000000000000000000000000000000000000000815260206004820152601560248201527f57696e657279526f757465723a20455850495245440000000000000000000000604482015290519081900360640190fd5b6134e08c8c8c8c8c8c615504565b909450925060006135127f00000000000000000000000000000000000000000000000000000000000000008e8e614380565b90506135208d33838861442d565b61352c8c33838761442d565b8073ffffffffffffffffffffffffffffffffffffffff16636a627842886040518263ffffffff1660e01b8152600401808273ffffffffffffffffffffffffffffffffffffffff1673ffffffffffffffffffffffffffffffffffffffff168152602001915050602060405180830381600087803b1580156135ab57600080fd5b505af11580156135bf573d6000803e3d6000fd5b505050506040513d60208110156135d557600080fd5b5051949d939c50939a509198505050505050505050565b6135f46152cd565b60005473ffffffffffffffffffffffffffffffffffffffff90811691161461367d57604080517f08c379a000000000000000000000000000000000000000000000000000000000815260206004820181905260248201527f4f776e61626c653a2063616c6c6572206973206e6f7420746865206f776e6572604482015290519081900360640190fd5b61368681615805565b50565b600080600083428110156136fe57604080517f08c379a000000000000000000000000000000000000000000000000000000000815260206004820152601560248201527f57696e657279526f757465723a20455850495245440000000000000000000000604482015290519081900360640190fd5b61372c8a7f00000000000000000000000000000000000000000000000000000000000000008b348c8c615504565b9094509250600061377e7f00000000000000000000000000000000000000000000000000000000000000008c7f0000000000000000000000000000000000000000000000000000000000000000614380565b905061378c8b33838861442d565b7f000000000000000000000000000000000000000000000000000000000000000073ffffffffffffffffffffffffffffffffffffffff1663d0e30db0856040518263ffffffff1660e01b81526004016000604051808303818588803b1580156137f457600080fd5b505af1158015613808573d6000803e3d6000fd5b50505050507f000000000000000000000000000000000000000000000000000000000000000073ffffffffffffffffffffffffffffffffffffffff1663a9059cbb82866040518363ffffffff1660e01b8152600401808373ffffffffffffffffffffffffffffffffffffffff1673ffffffffffffffffffffffffffffffffffffffff16815260200182815260200192505050602060405180830381600087803b1580156138b457600080fd5b505af11580156138c8573d6000803e3d6000fd5b505050506040513d60208110156138de57600080fd5b50516138e657fe5b8073ffffffffffffffffffffffffffffffffffffffff16636a627842886040518263ffffffff1660e01b8152600401808273ffffffffffffffffffffffffffffffffffffffff1673ffffffffffffffffffffffffffffffffffffffff168152602001915050602060405180830381600087803b15801561396557600080fd5b505af1158015613979573d6000803e3d6000fd5b505050506040513d602081101561398f57600080fd5b50519250348410156139a7576139a7338534036140a3565b505096509650969350505050565b60608142811015613a2757604080517f08c379a000000000000000000000000000000000000000000000000000000000815260206004820152601560248201527f57696e657279526f757465723a20455850495245440000000000000000000000604482015290519081900360640190fd5b7f000000000000000000000000000000000000000000000000000000000000000073ffffffffffffffffffffffffffffffffffffffff1686866000818110613a6b57fe5b9050602002013573ffffffffffffffffffffffffffffffffffffffff1673ffffffffffffffffffffffffffffffffffffffff1614613b0a57604080517f08c379a000000000000000000000000000000000000000000000000000000000815260206004820152601a60248201527f57696e657279526f757465723a20494e56414c49445f50415448000000000000604482015290519081900360640190fd5b613b687f00000000000000000000000000000000000000000000000000000000000000008888888080602002602001604051908101604052809392919081815260200183836020028082843760009201919091525061495a92505050565b91503482600081518110613b7857fe5b60200260200101511115613bd7576040517f08c379a0000000000000000000000000000000000000000000000000000000008152600401808060200182810382526024815260200180615c3e6024913960400191505060405180910390fd5b7f000000000000000000000000000000000000000000000000000000000000000073ffffffffffffffffffffffffffffffffffffffff1663d0e30db083600081518110613c2057fe5b60200260200101516040518263ffffffff1660e01b81526004016000604051808303818588803b158015613c5357600080fd5b505af1158015613c67573d6000803e3d6000fd5b50505050507f000000000000000000000000000000000000000000000000000000000000000073ffffffffffffffffffffffffffffffffffffffff1663a9059cbb613cd97f000000000000000000000000000000000000000000000000000000000000000089896000818110611bdf57fe5b84600081518110613ce657fe5b60200260200101516040518363ffffffff1660e01b8152600401808373ffffffffffffffffffffffffffffffffffffffff1673ffffffffffffffffffffffffffffffffffffffff16815260200182815260200192505050602060405180830381600087803b158015613d5757600080fd5b505af1158015613d6b573d6000803e3d6000fd5b505050506040513d6020811015613d8157600080fd5b5051613d8957fe5b613dc8828787808060200260200160405190810160405280939291908181526020018383602002808284376000920191909152508992506145fd915050565b81600081518110613dd557fe5b602002602001015134111561272d5761272d3383600081518110613df557fe5b602002602001015134036140a3565b613e0c6152cd565b60005473ffffffffffffffffffffffffffffffffffffffff908116911614613e9557604080517f08c379a000000000000000000000000000000000000000000000000000000000815260206004820181905260248201527f4f776e61626c653a2063616c6c6572206973206e6f7420746865206f776e6572604482015290519081900360640190fd5b600180547fffffffffffffffffffffffff00000000000000000000000000000000000000001673ffffffffffffffffffffffffffffffffffffffff92909216919091179055565b6040805173ffffffffffffffffffffffffffffffffffffffff8481166024830152604480830185905283518084039091018152606490920183526020820180517bffffffffffffffffffffffffffffffffffffffffffffffffffffffff167fa9059cbb00000000000000000000000000000000000000000000000000000000178152925182516000946060949389169392918291908083835b60208310613fb257805182527fffffffffffffffffffffffffffffffffffffffffffffffffffffffffffffffe09092019160209182019101613f75565b6001836020036101000a0380198251168184511680821785525050505050509050019150506000604051808303816000865af19150503d8060008114614014576040519150601f19603f3d011682016040523d82523d6000602084013e614019565b606091505b5091509150818015614047575080511580614047575080806020019051602081101561404457600080fd5b50515b61409c576040517f08c379a000000000000000000000000000000000000000000000000000000000815260040180806020018281038252602d815260200180615d1a602d913960400191505060405180910390fd5b5050505050565b6040805160008082526020820190925273ffffffffffffffffffffffffffffffffffffffff84169083906040518082805190602001908083835b6020831061411a57805182527fffffffffffffffffffffffffffffffffffffffffffffffffffffffffffffffe090920191602091820191016140dd565b6001836020036101000a03801982511681845116808217855250505050505090500191505060006040518083038185875af1925050503d806000811461417c576040519150601f19603f3d011682016040523d82523d6000602084013e614181565b606091505b50509050806141db576040517f08c379a0000000000000000000000000000000000000000000000000000000008152600401808060200182810382526034815260200180615c0a6034913960400191505060405180910390fd5b505050565b606060028251101561425357604080517f08c379a000000000000000000000000000000000000000000000000000000000815260206004820152601b60248201527f57696e6572794c6962726172793a20494e56414c49445f504154480000000000604482015290519081900360640190fd5b815167ffffffffffffffff8111801561426b57600080fd5b50604051908082528060200260200182016040528015614295578160200160208202803683370190505b50905082816000815181106142a657fe5b60200260200101818152505060005b6001835103811015614378576000806142f8878685815181106142d457fe5b60200260200101518786600101815181106142eb57fe5b60200260200101516158fe565b91509150600061435085858151811061430d57fe5b6020026020010151848461434b8c8b8a8151811061432757fe5b60200260200101518c8b6001018151811061433e57fe5b60200260200101516159e6565b614b0f565b90508085856001018151811061436257fe5b60209081029190910101525050506001016142b5565b509392505050565b604080517fe6a4390500000000000000000000000000000000000000000000000000000000815273ffffffffffffffffffffffffffffffffffffffff84811660048301528381166024830152915160009286169163e6a43905916044808301926020929190829003018186803b1580156143f957600080fd5b505afa15801561440d573d6000803e3d6000fd5b505050506040513d602081101561442357600080fd5b5051949350505050565b6040805173ffffffffffffffffffffffffffffffffffffffff85811660248301528481166044830152606480830185905283518084039091018152608490920183526020820180517bffffffffffffffffffffffffffffffffffffffffffffffffffffffff167f23b872dd0000000000000000000000000000000000000000000000000000000017815292518251600094606094938a169392918291908083835b6020831061450b57805182527fffffffffffffffffffffffffffffffffffffffffffffffffffffffffffffffe090920191602091820191016144ce565b6001836020036101000a0380198251168184511680821785525050505050509050019150506000604051808303816000865af19150503d806000811461456d576040519150601f19603f3d011682016040523d82523d6000602084013e614572565b606091505b50915091508180156145a05750805115806145a0575080806020019051602081101561459d57600080fd5b50515b6145f5576040517f08c379a0000000000000000000000000000000000000000000000000000000008152600401808060200182810382526031815260200180615bd96031913960400191505060405180910390fd5b505050505050565b60005b60018351038110156149545760008084838151811061461b57fe5b602002602001015185846001018151811061463257fe5b602002602001015191509150600061464a83836153b1565b509050600087856001018151811061465e57fe5b602002602001015190506000808373ffffffffffffffffffffffffffffffffffffffff168673ffffffffffffffffffffffffffffffffffffffff16146146a6578260006146aa565b6000835b600154919350915073ffffffffffffffffffffffffffffffffffffffff161561478457600154604080517fa9678a1800000000000000000000000000000000000000000000000000000000815233600482015273ffffffffffffffffffffffffffffffffffffffff89811660248301528881166044830152606482018790529151919092169163a9678a189160848083019260209291908290030181600087803b15801561475757600080fd5b505af115801561476b573d6000803e3d6000fd5b505050506040513d602081101561478157600080fd5b50505b600060028a5103881061479757886147d8565b6147d87f0000000000000000000000000000000000000000000000000000000000000000878c8b600201815181106147cb57fe5b6020026020010151614380565b90506148057f00000000000000000000000000000000000000000000000000000000000000008888614380565b73ffffffffffffffffffffffffffffffffffffffff1663022c0d9f84848460006040519080825280601f01601f19166020018201604052801561484f576020820181803683370190505b506040518563ffffffff1660e01b8152600401808581526020018481526020018373ffffffffffffffffffffffffffffffffffffffff1673ffffffffffffffffffffffffffffffffffffffff16815260200180602001828103825283818151815260200191508051906020019080838360005b838110156148da5781810151838201526020016148c2565b50505050905090810190601f1680156149075780820380516001836020036101000a031916815260200191505b5095505050505050600060405180830381600087803b15801561492957600080fd5b505af115801561493d573d6000803e3d6000fd5b505060019099019850614600975050505050505050565b50505050565b60606002825110156149cd57604080517f08c379a000000000000000000000000000000000000000000000000000000000815260206004820152601b60248201527f57696e6572794c6962726172793a20494e56414c49445f504154480000000000604482015290519081900360640190fd5b815167ffffffffffffffff811180156149e557600080fd5b50604051908082528060200260200182016040528015614a0f578160200160208202803683370190505b5090508281600183510381518110614a2357fe5b602090810291909101015281517fffffffffffffffffffffffffffffffffffffffffffffffffffffffffffffffff015b801561437857600080614a8387866001860381518110614a6f57fe5b60200260200101518786815181106142eb57fe5b91509150614acc848481518110614a9657fe5b60200260200101518383614ac78b8a60018a0381518110614ab357fe5b60200260200101518b8a8151811061433e57fe5b614c44565b846001850381518110614adb57fe5b602090810291909101015250507fffffffffffffffffffffffffffffffffffffffffffffffffffffffffffffffff01614a53565b6000808511614b69576040517f08c379a0000000000000000000000000000000000000000000000000000000008152600401808060200182810382526028815260200180615c846028913960400191505060405180910390fd5b600084118015614b795750600083115b614bce576040517f08c379a0000000000000000000000000000000000000000000000000000000008152600401808060200182810382526025815260200180615b6b6025913960400191505060405180910390fd5b6000614bf2614be56127108563ffffffff61525b16565b879063ffffffff615a7216565b90506000614c06828663ffffffff615a7216565b90506000614c2c83614c208961271063ffffffff615a7216565b9063ffffffff615af816565b9050808281614c3757fe5b0498975050505050505050565b6000808511614c9e576040517f08c379a0000000000000000000000000000000000000000000000000000000008152600401808060200182810382526029815260200180615cac6029913960400191505060405180910390fd5b600084118015614cae5750600083115b614d03576040517f08c379a0000000000000000000000000000000000000000000000000000000008152600401808060200182810382526025815260200180615b6b6025913960400191505060405180910390fd5b6000614d27612710614d1b878963ffffffff615a7216565b9063ffffffff615a7216565b90506000614d50614d406127108663ffffffff61525b16565b614d1b878a63ffffffff61525b16565b9050614d6d6001828481614d6057fe5b049063ffffffff615af816565b979650505050505050565b60005b60018351038110156141db57600080848381518110614d9657fe5b6020026020010151858460010181518110614dad57fe5b6020026020010151915091506000614dc583836153b1565b5090506000614df57f00000000000000000000000000000000000000000000000000000000000000008585614380565b90506000806000808473ffffffffffffffffffffffffffffffffffffffff16630902f1ac6040518163ffffffff1660e01b815260040160606040518083038186803b158015614e4357600080fd5b505afa158015614e57573d6000803e3d6000fd5b505050506040513d6060811015614e6d57600080fd5b5080516020909101516dffffffffffffffffffffffffffff918216935016905060008073ffffffffffffffffffffffffffffffffffffffff8a811690891614614eb7578284614eba565b83835b91509150614f3f828b73ffffffffffffffffffffffffffffffffffffffff166370a082318a6040518263ffffffff1660e01b8152600401808273ffffffffffffffffffffffffffffffffffffffff1673ffffffffffffffffffffffffffffffffffffffff16815260200191505060206040518083038186803b158015611e1057600080fd5b9550614fc48683838a73ffffffffffffffffffffffffffffffffffffffff166354cf2aeb6040518163ffffffff1660e01b815260040160206040518083038186803b158015614f8d57600080fd5b505afa158015614fa1573d6000803e3d6000fd5b505050506040513d6020811015614fb757600080fd5b505163ffffffff16614b0f565b60015490955073ffffffffffffffffffffffffffffffffffffffff161593506150a29250505057600154604080517fa9678a1800000000000000000000000000000000000000000000000000000000815233600482015273ffffffffffffffffffffffffffffffffffffffff89811660248301528881166044830152606482018590529151919092169163a9678a189160848083019260209291908290030181600087803b15801561507557600080fd5b505af1158015615089573d6000803e3d6000fd5b505050506040513d602081101561509f57600080fd5b50505b6000808573ffffffffffffffffffffffffffffffffffffffff168873ffffffffffffffffffffffffffffffffffffffff16146150e0578260006150e4565b6000835b91509150600060028c51038a106150fb578a61512f565b61512f7f0000000000000000000000000000000000000000000000000000000000000000898e8d600201815181106147cb57fe5b60408051600080825260208201928390527f022c0d9f000000000000000000000000000000000000000000000000000000008352602482018781526044830187905273ffffffffffffffffffffffffffffffffffffffff8086166064850152608060848501908152845160a48601819052969750908c169563022c0d9f958a958a958a9591949193919260c486019290918190849084905b838110156151df5781810151838201526020016151c7565b50505050905090810190601f16801561520c5780820380516001836020036101000a031916815260200191505b5095505050505050600060405180830381600087803b15801561522e57600080fd5b505af1158015615242573d6000803e3d6000fd5b50506001909b019a50614d7b9950505050505050505050565b8082038281111561148157604080517f08c379a000000000000000000000000000000000000000000000000000000000815260206004820152601560248201527f64732d6d6174682d7375622d756e646572666c6f770000000000000000000000604482015290519081900360640190fd5b3390565b600080841161532b576040517f08c379a0000000000000000000000000000000000000000000000000000000008152600401808060200182810382526022815260200180615cf86022913960400191505060405180910390fd5b60008311801561533b5750600082115b615390576040517f08c379a0000000000000000000000000000000000000000000000000000000008152600401808060200182810382526025815260200180615b6b6025913960400191505060405180910390fd5b826153a1858463ffffffff615a7216565b816153a857fe5b04949350505050565b6000808273ffffffffffffffffffffffffffffffffffffffff168473ffffffffffffffffffffffffffffffffffffffff161415615439576040517f08c379a0000000000000000000000000000000000000000000000000000000008152600401808060200182810382526022815260200180615c626022913960400191505060405180910390fd5b8273ffffffffffffffffffffffffffffffffffffffff168473ffffffffffffffffffffffffffffffffffffffff1610615473578284615476565b83835b909250905073ffffffffffffffffffffffffffffffffffffffff82166154fd57604080517f08c379a000000000000000000000000000000000000000000000000000000000815260206004820152601b60248201527f57696e6572794c6962726172793a205a45524f5f414444524553530000000000604482015290519081900360640190fd5b9250929050565b604080517fe6a4390500000000000000000000000000000000000000000000000000000000815273ffffffffffffffffffffffffffffffffffffffff888116600483015287811660248301529151600092839283927f00000000000000000000000000000000000000000000000000000000000000009092169163e6a4390591604480820192602092909190829003018186803b1580156155a457600080fd5b505afa1580156155b8573d6000803e3d6000fd5b505050506040513d60208110156155ce57600080fd5b505173ffffffffffffffffffffffffffffffffffffffff1614156156b457604080517fc9c6539600000000000000000000000000000000000000000000000000000000815273ffffffffffffffffffffffffffffffffffffffff8a81166004830152898116602483015291517f00000000000000000000000000000000000000000000000000000000000000009092169163c9c65396916044808201926020929091908290030181600087803b15801561568757600080fd5b505af115801561569b573d6000803e3d6000fd5b505050506040513d60208110156156b157600080fd5b50505b6000806156e27f00000000000000000000000000000000000000000000000000000000000000008b8b6158fe565b915091508160001480156156f4575080155b15615704578793508692506157f8565b60006157118984846152d1565b905087811161577e5785811015615773576040517f08c379a0000000000000000000000000000000000000000000000000000000008152600401808060200182810382526023815260200180615cd56023913960400191505060405180910390fd5b8894509250826157f6565b600061578b8984866152d1565b90508981111561579757fe5b878110156157f0576040517f08c379a0000000000000000000000000000000000000000000000000000000008152600401808060200182810382526023815260200180615bb66023913960400191505060405180910390fd5b94508793505b505b5050965096945050505050565b73ffffffffffffffffffffffffffffffffffffffff8116615871576040517f08c379a0000000000000000000000000000000000000000000000000000000008152600401808060200182810382526026815260200180615b906026913960400191505060405180910390fd5b6000805460405173ffffffffffffffffffffffffffffffffffffffff808516939216917f8be0079c531659141344cd1fd0a4f28419497f9722a3daafe3b4186f6b6457e091a3600080547fffffffffffffffffffffffff00000000000000000000000000000000000000001673ffffffffffffffffffffffffffffffffffffffff92909216919091179055565b600080600061590d85856153b1565b50905060008061591e888888614380565b73ffffffffffffffffffffffffffffffffffffffff16630902f1ac6040518163ffffffff1660e01b815260040160606040518083038186803b15801561596357600080fd5b505afa158015615977573d6000803e3d6000fd5b505050506040513d606081101561598d57600080fd5b5080516020909101516dffffffffffffffffffffffffffff918216935016905073ffffffffffffffffffffffffffffffffffffffff878116908416146159d45780826159d7565b81815b90999098509650505050505050565b60006159f3848484614380565b73ffffffffffffffffffffffffffffffffffffffff166354cf2aeb6040518163ffffffff1660e01b815260040160206040518083038186803b158015615a3857600080fd5b505afa158015615a4c573d6000803e3d6000fd5b505050506040513d6020811015615a6257600080fd5b505163ffffffff16949350505050565b6000811580615a8d57505080820282828281615a8a57fe5b04145b61148157604080517f08c379a000000000000000000000000000000000000000000000000000000000815260206004820152601460248201527f64732d6d6174682d6d756c2d6f766572666c6f77000000000000000000000000604482015290519081900360640190fd5b8082018281101561148157604080517f08c379a000000000000000000000000000000000000000000000000000000000815260206004820152601460248201527f64732d6d6174682d6164642d6f766572666c6f77000000000000000000000000604482015290519081900360640190fdfe57696e6572794c6962726172793a20494e53554646494349454e545f4c49515549444954594f776e61626c653a206e6577206f776e657220697320746865207a65726f206164647265737357696e657279526f757465723a20494e53554646494349454e545f415f414d4f554e545472616e7366657248656c7065723a3a7472616e7366657246726f6d3a207472616e7366657246726f6d206661696c65645472616e7366657248656c7065723a3a736166655472616e736665724554483a20455448207472616e73666572206661696c656457696e657279526f757465723a204558434553534956455f494e5055545f414d4f554e5457696e6572794c6962726172793a204944454e544943414c5f41444452455353455357696e6572794c6962726172793a20494e53554646494349454e545f494e5055545f414d4f554e5457696e6572794c6962726172793a20494e53554646494349454e545f4f55545055545f414d4f554e5457696e657279526f757465723a20494e53554646494349454e545f425f414d4f554e5457696e6572794c6962726172793a20494e53554646494349454e545f414d4f554e545472616e7366657248656c7065723a3a736166655472616e736665723a207472616e73666572206661696c656457696e657279526f757465723a20494e53554646494349454e545f4f55545055545f414d4f554e54a264697066735822122007c10e0b372704ee6f7b11e89ea0fd5526807e2660ff3d4f6d9a66aad837a81c64736f6c63430006060033",
  "devdoc": {
    "methods": {
      "owner()": {
        "details": "Returns the address of the current owner."
      },
      "renounceOwnership()": {
        "details": "Leaves the contract without owner. It will not be possible to call `onlyOwner` functions anymore. Can only be called by the current owner.     * NOTE: Renouncing ownership will leave the contract without an owner, thereby removing any functionality that is only available to the owner."
      },
      "transferOwnership(address)": {
        "details": "Transfers ownership of the contract to a new account (`newOwner`). Can only be called by the current owner."
      }
    }
  },
  "userdoc": {
    "methods": {}
  },
  "storageLayout": {
    "storage": [
      {
        "astId": 34,
        "contract": "contracts/swap/Router.sol:Router",
        "label": "_owner",
        "offset": 0,
        "slot": "0",
        "type": "t_address"
      },
      {
        "astId": 334,
        "contract": "contracts/swap/Router.sol:Router",
        "label": "swapFeeReward",
        "offset": 0,
        "slot": "1",
        "type": "t_address"
      }
    ],
    "types": {
      "t_address": {
        "encoding": "inplace",
        "label": "address",
        "numberOfBytes": "20"
      }
    }
  }
}