{
  "address": "0xa513E6E4b8f2a923D98304ec87F64353C4D5C853",
  "abi": [
    {
      "inputs": [
        {
          "internalType": "address",
          "name": "_factory",
          "type": "address"
        },
        {
          "internalType": "address",
          "name": "_WETH",
          "type": "address"
        }
      ],
      "stateMutability": "nonpayable",
      "type": "constructor"
    },
    {
      "anonymous": false,
      "inputs": [
        {
          "indexed": true,
          "internalType": "address",
          "name": "previousOwner",
          "type": "address"
        },
        {
          "indexed": true,
          "internalType": "address",
          "name": "newOwner",
          "type": "address"
        }
      ],
      "name": "OwnershipTransferred",
      "type": "event"
    },
    {
      "inputs": [],
      "name": "WETH",
      "outputs": [
        {
          "internalType": "address",
          "name": "",
          "type": "address"
        }
      ],
      "stateMutability": "view",
      "type": "function"
    },
    {
      "inputs": [
        {
          "internalType": "address",
          "name": "tokenA",
          "type": "address"
        },
        {
          "internalType": "address",
          "name": "tokenB",
          "type": "address"
        },
        {
          "internalType": "uint256",
          "name": "amountADesired",
          "type": "uint256"
        },
        {
          "internalType": "uint256",
          "name": "amountBDesired",
          "type": "uint256"
        },
        {
          "internalType": "uint256",
          "name": "amountAMin",
          "type": "uint256"
        },
        {
          "internalType": "uint256",
          "name": "amountBMin",
          "type": "uint256"
        },
        {
          "internalType": "address",
          "name": "to",
          "type": "address"
        },
        {
          "internalType": "uint256",
          "name": "deadline",
          "type": "uint256"
        }
      ],
      "name": "addLiquidity",
      "outputs": [
        {
          "internalType": "uint256",
          "name": "amountA",
          "type": "uint256"
        },
        {
          "internalType": "uint256",
          "name": "amountB",
          "type": "uint256"
        },
        {
          "internalType": "uint256",
          "name": "liquidity",
          "type": "uint256"
        }
      ],
      "stateMutability": "nonpayable",
      "type": "function"
    },
    {
      "inputs": [
        {
          "internalType": "address",
          "name": "token",
          "type": "address"
        },
        {
          "internalType": "uint256",
          "name": "amountTokenDesired",
          "type": "uint256"
        },
        {
          "internalType": "uint256",
          "name": "amountTokenMin",
          "type": "uint256"
        },
        {
          "internalType": "uint256",
          "name": "amountETHMin",
          "type": "uint256"
        },
        {
          "internalType": "address",
          "name": "to",
          "type": "address"
        },
        {
          "internalType": "uint256",
          "name": "deadline",
          "type": "uint256"
        }
      ],
      "name": "addLiquidityETH",
      "outputs": [
        {
          "internalType": "uint256",
          "name": "amountToken",
          "type": "uint256"
        },
        {
          "internalType": "uint256",
          "name": "amountETH",
          "type": "uint256"
        },
        {
          "internalType": "uint256",
          "name": "liquidity",
          "type": "uint256"
        }
      ],
      "stateMutability": "payable",
      "type": "function"
    },
    {
      "inputs": [],
      "name": "factory",
      "outputs": [
        {
          "internalType": "address",
          "name": "",
          "type": "address"
        }
      ],
      "stateMutability": "view",
      "type": "function"
    },
    {
      "inputs": [
        {
          "internalType": "uint256",
          "name": "amountOut",
          "type": "uint256"
        },
        {
          "internalType": "uint256",
          "name": "reserveIn",
          "type": "uint256"
        },
        {
          "internalType": "uint256",
          "name": "reserveOut",
          "type": "uint256"
        },
        {
          "internalType": "uint256",
          "name": "swapFee",
          "type": "uint256"
        }
      ],
      "name": "getAmountIn",
      "outputs": [
        {
          "internalType": "uint256",
          "name": "amountIn",
          "type": "uint256"
        }
      ],
      "stateMutability": "pure",
      "type": "function"
    },
    {
      "inputs": [
        {
          "internalType": "uint256",
          "name": "amountIn",
          "type": "uint256"
        },
        {
          "internalType": "uint256",
          "name": "reserveIn",
          "type": "uint256"
        },
        {
          "internalType": "uint256",
          "name": "reserveOut",
          "type": "uint256"
        },
        {
          "internalType": "uint256",
          "name": "swapFee",
          "type": "uint256"
        }
      ],
      "name": "getAmountOut",
      "outputs": [
        {
          "internalType": "uint256",
          "name": "amountOut",
          "type": "uint256"
        }
      ],
      "stateMutability": "pure",
      "type": "function"
    },
    {
      "inputs": [
        {
          "internalType": "uint256",
          "name": "amountOut",
          "type": "uint256"
        },
        {
          "internalType": "address[]",
          "name": "path",
          "type": "address[]"
        }
      ],
      "name": "getAmountsIn",
      "outputs": [
        {
          "internalType": "uint256[]",
          "name": "amounts",
          "type": "uint256[]"
        }
      ],
      "stateMutability": "view",
      "type": "function"
    },
    {
      "inputs": [
        {
          "internalType": "uint256",
          "name": "amountIn",
          "type": "uint256"
        },
        {
          "internalType": "address[]",
          "name": "path",
          "type": "address[]"
        }
      ],
      "name": "getAmountsOut",
      "outputs": [
        {
          "internalType": "uint256[]",
          "name": "amounts",
          "type": "uint256[]"
        }
      ],
      "stateMutability": "view",
      "type": "function"
    },
    {
      "inputs": [],
      "name": "owner",
      "outputs": [
        {
          "internalType": "address",
          "name": "",
          "type": "address"
        }
      ],
      "stateMutability": "view",
      "type": "function"
    },
    {
      "inputs": [
        {
          "internalType": "uint256",
          "name": "amountA",
          "type": "uint256"
        },
        {
          "internalType": "uint256",
          "name": "reserveA",
          "type": "uint256"
        },
        {
          "internalType": "uint256",
          "name": "reserveB",
          "type": "uint256"
        }
      ],
      "name": "quote",
      "outputs": [
        {
          "internalType": "uint256",
          "name": "amountB",
          "type": "uint256"
        }
      ],
      "stateMutability": "pure",
      "type": "function"
    },
    {
      "inputs": [
        {
          "internalType": "address",
          "name": "tokenA",
          "type": "address"
        },
        {
          "internalType": "address",
          "name": "tokenB",
          "type": "address"
        },
        {
          "internalType": "uint256",
          "name": "liquidity",
          "type": "uint256"
        },
        {
          "internalType": "uint256",
          "name": "amountAMin",
          "type": "uint256"
        },
        {
          "internalType": "uint256",
          "name": "amountBMin",
          "type": "uint256"
        },
        {
          "internalType": "address",
          "name": "to",
          "type": "address"
        },
        {
          "internalType": "uint256",
          "name": "deadline",
          "type": "uint256"
        }
      ],
      "name": "removeLiquidity",
      "outputs": [
        {
          "internalType": "uint256",
          "name": "amountA",
          "type": "uint256"
        },
        {
          "internalType": "uint256",
          "name": "amountB",
          "type": "uint256"
        }
      ],
      "stateMutability": "nonpayable",
      "type": "function"
    },
    {
      "inputs": [
        {
          "internalType": "address",
          "name": "token",
          "type": "address"
        },
        {
          "internalType": "uint256",
          "name": "liquidity",
          "type": "uint256"
        },
        {
          "internalType": "uint256",
          "name": "amountTokenMin",
          "type": "uint256"
        },
        {
          "internalType": "uint256",
          "name": "amountETHMin",
          "type": "uint256"
        },
        {
          "internalType": "address",
          "name": "to",
          "type": "address"
        },
        {
          "internalType": "uint256",
          "name": "deadline",
          "type": "uint256"
        }
      ],
      "name": "removeLiquidityETH",
      "outputs": [
        {
          "internalType": "uint256",
          "name": "amountToken",
          "type": "uint256"
        },
        {
          "internalType": "uint256",
          "name": "amountETH",
          "type": "uint256"
        }
      ],
      "stateMutability": "nonpayable",
      "type": "function"
    },
    {
      "inputs": [
        {
          "internalType": "address",
          "name": "token",
          "type": "address"
        },
        {
          "internalType": "uint256",
          "name": "liquidity",
          "type": "uint256"
        },
        {
          "internalType": "uint256",
          "name": "amountTokenMin",
          "type": "uint256"
        },
        {
          "internalType": "uint256",
          "name": "amountETHMin",
          "type": "uint256"
        },
        {
          "internalType": "address",
          "name": "to",
          "type": "address"
        },
        {
          "internalType": "uint256",
          "name": "deadline",
          "type": "uint256"
        }
      ],
      "name": "removeLiquidityETHSupportingFeeOnTransferTokens",
      "outputs": [
        {
          "internalType": "uint256",
          "name": "amountETH",
          "type": "uint256"
        }
      ],
      "stateMutability": "nonpayable",
      "type": "function"
    },
    {
      "inputs": [
        {
          "internalType": "address",
          "name": "token",
          "type": "address"
        },
        {
          "internalType": "uint256",
          "name": "liquidity",
          "type": "uint256"
        },
        {
          "internalType": "uint256",
          "name": "amountTokenMin",
          "type": "uint256"
        },
        {
          "internalType": "uint256",
          "name": "amountETHMin",
          "type": "uint256"
        },
        {
          "internalType": "address",
          "name": "to",
          "type": "address"
        },
        {
          "internalType": "uint256",
          "name": "deadline",
          "type": "uint256"
        },
        {
          "internalType": "bool",
          "name": "approveMax",
          "type": "bool"
        },
        {
          "internalType": "uint8",
          "name": "v",
          "type": "uint8"
        },
        {
          "internalType": "bytes32",
          "name": "r",
          "type": "bytes32"
        },
        {
          "internalType": "bytes32",
          "name": "s",
          "type": "bytes32"
        }
      ],
      "name": "removeLiquidityETHWithPermit",
      "outputs": [
        {
          "internalType": "uint256",
          "name": "amountToken",
          "type": "uint256"
        },
        {
          "internalType": "uint256",
          "name": "amountETH",
          "type": "uint256"
        }
      ],
      "stateMutability": "nonpayable",
      "type": "function"
    },
    {
      "inputs": [
        {
          "internalType": "address",
          "name": "token",
          "type": "address"
        },
        {
          "internalType": "uint256",
          "name": "liquidity",
          "type": "uint256"
        },
        {
          "internalType": "uint256",
          "name": "amountTokenMin",
          "type": "uint256"
        },
        {
          "internalType": "uint256",
          "name": "amountETHMin",
          "type": "uint256"
        },
        {
          "internalType": "address",
          "name": "to",
          "type": "address"
        },
        {
          "internalType": "uint256",
          "name": "deadline",
          "type": "uint256"
        },
        {
          "internalType": "bool",
          "name": "approveMax",
          "type": "bool"
        },
        {
          "internalType": "uint8",
          "name": "v",
          "type": "uint8"
        },
        {
          "internalType": "bytes32",
          "name": "r",
          "type": "bytes32"
        },
        {
          "internalType": "bytes32",
          "name": "s",
          "type": "bytes32"
        }
      ],
      "name": "removeLiquidityETHWithPermitSupportingFeeOnTransferTokens",
      "outputs": [
        {
          "internalType": "uint256",
          "name": "amountETH",
          "type": "uint256"
        }
      ],
      "stateMutability": "nonpayable",
      "type": "function"
    },
    {
      "inputs": [
        {
          "internalType": "address",
          "name": "tokenA",
          "type": "address"
        },
        {
          "internalType": "address",
          "name": "tokenB",
          "type": "address"
        },
        {
          "internalType": "uint256",
          "name": "liquidity",
          "type": "uint256"
        },
        {
          "internalType": "uint256",
          "name": "amountAMin",
          "type": "uint256"
        },
        {
          "internalType": "uint256",
          "name": "amountBMin",
          "type": "uint256"
        },
        {
          "internalType": "address",
          "name": "to",
          "type": "address"
        },
        {
          "internalType": "uint256",
          "name": "deadline",
          "type": "uint256"
        },
        {
          "internalType": "bool",
          "name": "approveMax",
          "type": "bool"
        },
        {
          "internalType": "uint8",
          "name": "v",
          "type": "uint8"
        },
        {
          "internalType": "bytes32",
          "name": "r",
          "type": "bytes32"
        },
        {
          "internalType": "bytes32",
          "name": "s",
          "type": "bytes32"
        }
      ],
      "name": "removeLiquidityWithPermit",
      "outputs": [
        {
          "internalType": "uint256",
          "name": "amountA",
          "type": "uint256"
        },
        {
          "internalType": "uint256",
          "name": "amountB",
          "type": "uint256"
        }
      ],
      "stateMutability": "nonpayable",
      "type": "function"
    },
    {
      "inputs": [],
      "name": "renounceOwnership",
      "outputs": [],
      "stateMutability": "nonpayable",
      "type": "function"
    },
    {
      "inputs": [
        {
          "internalType": "address",
          "name": "_swapFeeReward",
          "type": "address"
        }
      ],
      "name": "setSwapFeeReward",
      "outputs": [],
      "stateMutability": "nonpayable",
      "type": "function"
    },
    {
      "inputs": [
        {
          "internalType": "uint256",
          "name": "amountOut",
          "type": "uint256"
        },
        {
          "internalType": "address[]",
          "name": "path",
          "type": "address[]"
        },
        {
          "internalType": "address",
          "name": "to",
          "type": "address"
        },
        {
          "internalType": "uint256",
          "name": "deadline",
          "type": "uint256"
        }
      ],
      "name": "swapETHForExactTokens",
      "outputs": [
        {
          "internalType": "uint256[]",
          "name": "amounts",
          "type": "uint256[]"
        }
      ],
      "stateMutability": "payable",
      "type": "function"
    },
    {
      "inputs": [
        {
          "internalType": "uint256",
          "name": "amountOutMin",
          "type": "uint256"
        },
        {
          "internalType": "address[]",
          "name": "path",
          "type": "address[]"
        },
        {
          "internalType": "address",
          "name": "to",
          "type": "address"
        },
        {
          "internalType": "uint256",
          "name": "deadline",
          "type": "uint256"
        }
      ],
      "name": "swapExactETHForTokens",
      "outputs": [
        {
          "internalType": "uint256[]",
          "name": "amounts",
          "type": "uint256[]"
        }
      ],
      "stateMutability": "payable",
      "type": "function"
    },
    {
      "inputs": [
        {
          "internalType": "uint256",
          "name": "amountOutMin",
          "type": "uint256"
        },
        {
          "internalType": "address[]",
          "name": "path",
          "type": "address[]"
        },
        {
          "internalType": "address",
          "name": "to",
          "type": "address"
        },
        {
          "internalType": "uint256",
          "name": "deadline",
          "type": "uint256"
        }
      ],
      "name": "swapExactETHForTokensSupportingFeeOnTransferTokens",
      "outputs": [],
      "stateMutability": "payable",
      "type": "function"
    },
    {
      "inputs": [
        {
          "internalType": "uint256",
          "name": "amountIn",
          "type": "uint256"
        },
        {
          "internalType": "uint256",
          "name": "amountOutMin",
          "type": "uint256"
        },
        {
          "internalType": "address[]",
          "name": "path",
          "type": "address[]"
        },
        {
          "internalType": "address",
          "name": "to",
          "type": "address"
        },
        {
          "internalType": "uint256",
          "name": "deadline",
          "type": "uint256"
        }
      ],
      "name": "swapExactTokensForETH",
      "outputs": [
        {
          "internalType": "uint256[]",
          "name": "amounts",
          "type": "uint256[]"
        }
      ],
      "stateMutability": "nonpayable",
      "type": "function"
    },
    {
      "inputs": [
        {
          "internalType": "uint256",
          "name": "amountIn",
          "type": "uint256"
        },
        {
          "internalType": "uint256",
          "name": "amountOutMin",
          "type": "uint256"
        },
        {
          "internalType": "address[]",
          "name": "path",
          "type": "address[]"
        },
        {
          "internalType": "address",
          "name": "to",
          "type": "address"
        },
        {
          "internalType": "uint256",
          "name": "deadline",
          "type": "uint256"
        }
      ],
      "name": "swapExactTokensForETHSupportingFeeOnTransferTokens",
      "outputs": [],
      "stateMutability": "nonpayable",
      "type": "function"
    },
    {
      "inputs": [
        {
          "internalType": "uint256",
          "name": "amountIn",
          "type": "uint256"
        },
        {
          "internalType": "uint256",
          "name": "amountOutMin",
          "type": "uint256"
        },
        {
          "internalType": "address[]",
          "name": "path",
          "type": "address[]"
        },
        {
          "internalType": "address",
          "name": "to",
          "type": "address"
        },
        {
          "internalType": "uint256",
          "name": "deadline",
          "type": "uint256"
        }
      ],
      "name": "swapExactTokensForTokens",
      "outputs": [
        {
          "internalType": "uint256[]",
          "name": "amounts",
          "type": "uint256[]"
        }
      ],
      "stateMutability": "nonpayable",
      "type": "function"
    },
    {
      "inputs": [
        {
          "internalType": "uint256",
          "name": "amountIn",
          "type": "uint256"
        },
        {
          "internalType": "uint256",
          "name": "amountOutMin",
          "type": "uint256"
        },
        {
          "internalType": "address[]",
          "name": "path",
          "type": "address[]"
        },
        {
          "internalType": "address",
          "name": "to",
          "type": "address"
        },
        {
          "internalType": "uint256",
          "name": "deadline",
          "type": "uint256"
        }
      ],
      "name": "swapExactTokensForTokensSupportingFeeOnTransferTokens",
      "outputs": [],
      "stateMutability": "nonpayable",
      "type": "function"
    },
    {
      "inputs": [],
      "name": "swapFeeReward",
      "outputs": [
        {
          "internalType": "address",
          "name": "",
          "type": "address"
        }
      ],
      "stateMutability": "view",
      "type": "function"
    },
    {
      "inputs": [
        {
          "internalType": "uint256",
          "name": "amountOut",
          "type": "uint256"
        },
        {
          "internalType": "uint256",
          "name": "amountInMax",
          "type": "uint256"
        },
        {
          "internalType": "address[]",
          "name": "path",
          "type": "address[]"
        },
        {
          "internalType": "address",
          "name": "to",
          "type": "address"
        },
        {
          "internalType": "uint256",
          "name": "deadline",
          "type": "uint256"
        }
      ],
      "name": "swapTokensForExactETH",
      "outputs": [
        {
          "internalType": "uint256[]",
          "name": "amounts",
          "type": "uint256[]"
        }
      ],
      "stateMutability": "nonpayable",
      "type": "function"
    },
    {
      "inputs": [
        {
          "internalType": "uint256",
          "name": "amountOut",
          "type": "uint256"
        },
        {
          "internalType": "uint256",
          "name": "amountInMax",
          "type": "uint256"
        },
        {
          "internalType": "address[]",
          "name": "path",
          "type": "address[]"
        },
        {
          "internalType": "address",
          "name": "to",
          "type": "address"
        },
        {
          "internalType": "uint256",
          "name": "deadline",
          "type": "uint256"
        }
      ],
      "name": "swapTokensForExactTokens",
      "outputs": [
        {
          "internalType": "uint256[]",
          "name": "amounts",
          "type": "uint256[]"
        }
      ],
      "stateMutability": "nonpayable",
      "type": "function"
    },
    {
      "inputs": [
        {
          "internalType": "address",
          "name": "newOwner",
          "type": "address"
        }
      ],
      "name": "transferOwnership",
      "outputs": [],
      "stateMutability": "nonpayable",
      "type": "function"
    },
    {
      "stateMutability": "payable",
      "type": "receive"
    }
  ],
  "transactionHash": "0xc8f0540960bfc952a7ef1af5c6febcdf18ca60fe01e79f91615607383f9ef5cd",
  "args": [
    "0x0165878A594ca255338adfa4d48449f69242Eb8F",
    "0x5FbDB2315678afecb367f032d93F642f64180aa3"
  ],
  "numDeployments": 1,
  "solcInputHash": "63deb7718a6ea1d64affc719b1328f93",
  "bytecode": "0x60c06040523480156200001157600080fd5b506040516200612c3803806200612c833981810160405260408110156200003757600080fd5b5080516020909101516000620000556001600160e01b03620000be16565b600080546001600160a01b0319166001600160a01b0383169081178255604051929350917f8be0079c531659141344cd1fd0a4f28419497f9722a3daafe3b4186f6b6457e0908290a3506001600160601b0319606092831b8116608052911b1660a052620000c2565b3390565b60805160601c60a05160601c615f37620001f5600039806101e35280610f5f5280610f9a52806110c2528061138552806117df52806119e8528061203052806121b45280612284528061238b528061253e52806125d35280612a435280612af25280612bc75280612ccc5280612db45280612e3552806134c4528061389752806138ed528061392152806139a25280613bbc5280613d6c5280613e015250806111b452806112b252806114585280611491528061163c52806118d152806119c65280611bb35280612471528061261252806127ae52806128c15280612e7452806131b75280613449528061347252806134a2528061367f52806138cb5280613ca25280613e40528061492f52806149725280614f62528061529352806156ee52806157cf528061584f5250615f376000f3fe6080604052600436106101c65760003560e01c80638da5cb5b116100f7578063c45a015511610095578063f2fde38b11610064578063f2fde38b14610d80578063f305d71914610dc0578063fb3bdb4114610e13578063fbbeedf114610ea65761020c565b8063c45a015514610ba7578063d06ca61f14610bbc578063ded9382a14610c73578063e8e3370014610cf35761020c565b8063ad615dec116100d1578063ad615dec14610a14578063af2979eb14610a4a578063b6f9de9514610aaa578063baa2abde14610b3d5761020c565b80638da5cb5b146109ac578063a3ddb30b146109ea578063ad5c4648146109ff5761020c565b8063571fd01211610164578063715018a61161013e578063715018a6146107ba578063791ac947146107cf5780637ff36ab5146108745780638803dbee146109075761020c565b8063571fd012146106595780635b0d5984146106955780635c11d795146107155761020c565b80632195995c116101a05780632195995c1461043657806338ed1739146104c15780634a25d94a1461056657806352707d8c1461060b5761020c565b806302751cec1461021157806318cbafe51461028a5780631f00ca741461037f5761020c565b3661020c573373ffffffffffffffffffffffffffffffffffffffff7f0000000000000000000000000000000000000000000000000000000000000000161461020a57fe5b005b600080fd5b34801561021d57600080fd5b50610271600480360360c081101561023457600080fd5b5073ffffffffffffffffffffffffffffffffffffffff81358116916020810135916040820135916060810135916080820135169060a00135610ee6565b6040805192835260208301919091528051918290030190f35b34801561029657600080fd5b5061032f600480360360a08110156102ad57600080fd5b8135916020810135918101906060810160408201356401000000008111156102d457600080fd5b8201836020820111156102e657600080fd5b8035906020019184602083028401116401000000008311171561030857600080fd5b919350915073ffffffffffffffffffffffffffffffffffffffff8135169060200135611039565b60408051602080825283518183015283519192839290830191858101910280838360005b8381101561036b578181015183820152602001610353565b505050509050019250505060405180910390f35b34801561038b57600080fd5b5061032f600480360360408110156103a257600080fd5b813591908101906040810160208201356401000000008111156103c457600080fd5b8201836020820111156103d657600080fd5b803590602001918460208302840111640100000000831117156103f857600080fd5b919080806020026020016040519081016040528093929190818152602001838360200280828437600092019190915250929550611451945050505050565b34801561044257600080fd5b50610271600480360361016081101561045a57600080fd5b5073ffffffffffffffffffffffffffffffffffffffff8135811691602081013582169160408201359160608101359160808201359160a08101359091169060c08101359060e081013515159060ff6101008201351690610120810135906101400135611487565b3480156104cd57600080fd5b5061032f600480360360a08110156104e457600080fd5b81359160208101359181019060608101604082013564010000000081111561050b57600080fd5b82018360208201111561051d57600080fd5b8035906020019184602083028401116401000000008311171561053f57600080fd5b919350915073ffffffffffffffffffffffffffffffffffffffff81351690602001356115c5565b34801561057257600080fd5b5061032f600480360360a081101561058957600080fd5b8135916020810135918101906060810160408201356401000000008111156105b057600080fd5b8201836020820111156105c257600080fd5b803590602001918460208302840111640100000000831117156105e457600080fd5b919350915073ffffffffffffffffffffffffffffffffffffffff8135169060200135611756565b34801561061757600080fd5b506106476004803603608081101561062e57600080fd5b5080359060208101359060408101359060600135611999565b60408051918252519081900360200190f35b34801561066557600080fd5b506106476004803603608081101561067c57600080fd5b50803590602081013590604081013590606001356119b0565b3480156106a157600080fd5b5061064760048036036101408110156106b957600080fd5b5073ffffffffffffffffffffffffffffffffffffffff81358116916020810135916040820135916060810135916080820135169060a08101359060c081013515159060ff60e082013516906101008101359061012001356119be565b34801561072157600080fd5b5061020a600480360360a081101561073857600080fd5b81359160208101359181019060608101604082013564010000000081111561075f57600080fd5b82018360208201111561077157600080fd5b8035906020019184602083028401116401000000008311171561079357600080fd5b919350915073ffffffffffffffffffffffffffffffffffffffff8135169060200135611b10565b3480156107c657600080fd5b5061020a611ea9565b3480156107db57600080fd5b5061020a600480360360a08110156107f257600080fd5b81359160208101359181019060608101604082013564010000000081111561081957600080fd5b82018360208201111561082b57600080fd5b8035906020019184602083028401116401000000008311171561084d57600080fd5b919350915073ffffffffffffffffffffffffffffffffffffffff8135169060200135611fa9565b61032f6004803603608081101561088a57600080fd5b813591908101906040810160208201356401000000008111156108ac57600080fd5b8201836020820111156108be57600080fd5b803590602001918460208302840111640100000000831117156108e057600080fd5b919350915073ffffffffffffffffffffffffffffffffffffffff8135169060200135612317565b34801561091357600080fd5b5061032f600480360360a081101561092a57600080fd5b81359160208101359181019060608101604082013564010000000081111561095157600080fd5b82018360208201111561096357600080fd5b8035906020019184602083028401116401000000008311171561098557600080fd5b919350915073ffffffffffffffffffffffffffffffffffffffff8135169060200135612737565b3480156109b857600080fd5b506109c1612a09565b6040805173ffffffffffffffffffffffffffffffffffffffff9092168252519081900360200190f35b3480156109f657600080fd5b506109c1612a25565b348015610a0b57600080fd5b506109c1612a41565b348015610a2057600080fd5b5061064760048036036060811015610a3757600080fd5b5080359060208101359060400135612a65565b348015610a5657600080fd5b50610647600480360360c0811015610a6d57600080fd5b5073ffffffffffffffffffffffffffffffffffffffff81358116916020810135916040820135916060810135916080820135169060a00135612a7a565b61020a60048036036080811015610ac057600080fd5b81359190810190604081016020820135640100000000811115610ae257600080fd5b820183602082011115610af457600080fd5b80359060200191846020830284011164010000000083111715610b1657600080fd5b919350915073ffffffffffffffffffffffffffffffffffffffff8135169060200135612c5a565b348015610b4957600080fd5b50610271600480360360e0811015610b6057600080fd5b5073ffffffffffffffffffffffffffffffffffffffff8135811691602081013582169160408201359160608101359160808201359160a08101359091169060c0013561313d565b348015610bb357600080fd5b506109c1613447565b348015610bc857600080fd5b5061032f60048036036040811015610bdf57600080fd5b81359190810190604081016020820135640100000000811115610c0157600080fd5b820183602082011115610c1357600080fd5b80359060200191846020830284011164010000000083111715610c3557600080fd5b91908080602002602001604051908101604052809392919081815260200183836020028082843760009201919091525092955061346b945050505050565b348015610c7f57600080fd5b506102716004803603610140811015610c9757600080fd5b5073ffffffffffffffffffffffffffffffffffffffff81358116916020810135916040820135916060810135916080820135169060a08101359060c081013515159060ff60e08201351690610100810135906101200135613498565b348015610cff57600080fd5b50610d626004803603610100811015610d1757600080fd5b5073ffffffffffffffffffffffffffffffffffffffff8135811691602081013582169160408201359160608101359160808201359160a08101359160c0820135169060e001356135f0565b60408051938452602084019290925282820152519081900360600190f35b348015610d8c57600080fd5b5061020a60048036036020811015610da357600080fd5b503573ffffffffffffffffffffffffffffffffffffffff1661377f565b610d62600480360360c0811015610dd657600080fd5b5073ffffffffffffffffffffffffffffffffffffffff81358116916020810135916040820135916060810135916080820135169060a0013561381c565b61032f60048036036080811015610e2957600080fd5b81359190810190604081016020820135640100000000811115610e4b57600080fd5b820183602082011115610e5d57600080fd5b80359060200191846020830284011164010000000083111715610e7f57600080fd5b919350915073ffffffffffffffffffffffffffffffffffffffff8135169060200135613b48565b348015610eb257600080fd5b5061020a60048036036020811015610ec957600080fd5b503573ffffffffffffffffffffffffffffffffffffffff16613f97565b6000808242811015610f5957604080517f08c379a000000000000000000000000000000000000000000000000000000000815260206004820152601560248201527f57696e657279526f757465723a20455850495245440000000000000000000000604482015290519081900360640190fd5b610f88897f00000000000000000000000000000000000000000000000000000000000000008a8a8a308a61313d565b9093509150610f9889868561406f565b7f000000000000000000000000000000000000000000000000000000000000000073ffffffffffffffffffffffffffffffffffffffff16632e1a7d4d836040518263ffffffff1660e01b815260040180828152602001915050600060405180830381600087803b15801561100b57600080fd5b505af115801561101f573d6000803e3d6000fd5b5050505061102d8583614236565b50965096945050505050565b606081428110156110ab57604080517f08c379a000000000000000000000000000000000000000000000000000000000815260206004820152601560248201527f57696e657279526f757465723a20455850495245440000000000000000000000604482015290519081900360640190fd5b73ffffffffffffffffffffffffffffffffffffffff7f00000000000000000000000000000000000000000000000000000000000000001686867fffffffffffffffffffffffffffffffffffffffffffffffffffffffffffffffff810181811061111057fe5b9050602002013573ffffffffffffffffffffffffffffffffffffffff1673ffffffffffffffffffffffffffffffffffffffff16146111af57604080517f08c379a000000000000000000000000000000000000000000000000000000000815260206004820152601a60248201527f57696e657279526f757465723a20494e56414c49445f50415448000000000000604482015290519081900360640190fd5b61120d7f00000000000000000000000000000000000000000000000000000000000000008988888080602002602001604051908101604052809392919081815260200183836020028082843760009201919091525061437392505050565b9150868260018451038151811061122057fe5b6020026020010151101561127f576040517f08c379a0000000000000000000000000000000000000000000000000000000008152600401808060200182810382526028815260200180615eda6028913960400191505060405180910390fd5b6113448686600081811061128f57fe5b9050602002013573ffffffffffffffffffffffffffffffffffffffff163361132a7f00000000000000000000000000000000000000000000000000000000000000008a8a60008181106112de57fe5b9050602002013573ffffffffffffffffffffffffffffffffffffffff168b8b600181811061130857fe5b9050602002013573ffffffffffffffffffffffffffffffffffffffff16614513565b8560008151811061133757fe5b60200260200101516145c0565b61138382878780806020026020016040519081016040528093929190818152602001838360200280828437600092019190915250309250614790915050565b7f000000000000000000000000000000000000000000000000000000000000000073ffffffffffffffffffffffffffffffffffffffff16632e1a7d4d836001855103815181106113cf57fe5b60200260200101516040518263ffffffff1660e01b815260040180828152602001915050600060405180830381600087803b15801561140d57600080fd5b505af1158015611421573d6000803e3d6000fd5b50505050611446848360018551038151811061143957fe5b6020026020010151614236565b509695505050505050565b606061147e7f00000000000000000000000000000000000000000000000000000000000000008484614aed565b90505b92915050565b60008060006114b77f00000000000000000000000000000000000000000000000000000000000000008f8f614513565b90506000876114c6578c6114e8565b7fffffffffffffffffffffffffffffffffffffffffffffffffffffffffffffffff5b604080517fd505accf00000000000000000000000000000000000000000000000000000000815233600482015230602482015260448101839052606481018c905260ff8a16608482015260a4810189905260c48101889052905191925073ffffffffffffffffffffffffffffffffffffffff84169163d505accf9160e48082019260009290919082900301818387803b15801561158457600080fd5b505af1158015611598573d6000803e3d6000fd5b505050506115ab8f8f8f8f8f8f8f61313d565b809450819550505050509b509b9950505050505050505050565b6060814281101561163757604080517f08c379a000000000000000000000000000000000000000000000000000000000815260206004820152601560248201527f57696e657279526f757465723a20455850495245440000000000000000000000604482015290519081900360640190fd5b6116957f00000000000000000000000000000000000000000000000000000000000000008988888080602002602001604051908101604052809392919081815260200183836020028082843760009201919091525061437392505050565b915086826001845103815181106116a857fe5b60200260200101511015611707576040517f08c379a0000000000000000000000000000000000000000000000000000000008152600401808060200182810382526028815260200180615eda6028913960400191505060405180910390fd5b6117178686600081811061128f57fe5b61144682878780806020026020016040519081016040528093929190818152602001838360200280828437600092019190915250899250614790915050565b606081428110156117c857604080517f08c379a000000000000000000000000000000000000000000000000000000000815260206004820152601560248201527f57696e657279526f757465723a20455850495245440000000000000000000000604482015290519081900360640190fd5b73ffffffffffffffffffffffffffffffffffffffff7f00000000000000000000000000000000000000000000000000000000000000001686867fffffffffffffffffffffffffffffffffffffffffffffffffffffffffffffffff810181811061182d57fe5b9050602002013573ffffffffffffffffffffffffffffffffffffffff1673ffffffffffffffffffffffffffffffffffffffff16146118cc57604080517f08c379a000000000000000000000000000000000000000000000000000000000815260206004820152601a60248201527f57696e657279526f757465723a20494e56414c49445f50415448000000000000604482015290519081900360640190fd5b61192a7f000000000000000000000000000000000000000000000000000000000000000089888880806020026020016040519081016040528093929190818152602001838360200280828437600092019190915250614aed92505050565b9150868260008151811061193a57fe5b6020026020010151111561127f576040517f08c379a0000000000000000000000000000000000000000000000000000000008152600401808060200182810382526024815260200180615dd16024913960400191505060405180910390fd5b60006119a785858585614ca2565b95945050505050565b60006119a785858585614dd7565b600080611a0c7f00000000000000000000000000000000000000000000000000000000000000008d7f0000000000000000000000000000000000000000000000000000000000000000614513565b9050600086611a1b578b611a3d565b7fffffffffffffffffffffffffffffffffffffffffffffffffffffffffffffffff5b604080517fd505accf00000000000000000000000000000000000000000000000000000000815233600482015230602482015260448101839052606481018b905260ff8916608482015260a4810188905260c48101879052905191925073ffffffffffffffffffffffffffffffffffffffff84169163d505accf9160e48082019260009290919082900301818387803b158015611ad957600080fd5b505af1158015611aed573d6000803e3d6000fd5b50505050611aff8d8d8d8d8d8d612a7a565b9d9c50505050505050505050505050565b8042811015611b8057604080517f08c379a000000000000000000000000000000000000000000000000000000000815260206004820152601560248201527f57696e657279526f757465723a20455850495245440000000000000000000000604482015290519081900360640190fd5b611c0f85856000818110611b9057fe5b9050602002013573ffffffffffffffffffffffffffffffffffffffff1633611c097f000000000000000000000000000000000000000000000000000000000000000089896000818110611bdf57fe5b9050602002013573ffffffffffffffffffffffffffffffffffffffff168a8a600181811061130857fe5b8a6145c0565b600085857fffffffffffffffffffffffffffffffffffffffffffffffffffffffffffffffff8101818110611c3f57fe5b9050602002013573ffffffffffffffffffffffffffffffffffffffff1673ffffffffffffffffffffffffffffffffffffffff166370a08231856040518263ffffffff1660e01b8152600401808273ffffffffffffffffffffffffffffffffffffffff1673ffffffffffffffffffffffffffffffffffffffff16815260200191505060206040518083038186803b158015611cd857600080fd5b505afa158015611cec573d6000803e3d6000fd5b505050506040513d6020811015611d0257600080fd5b50516040805160208881028281018201909352888252929350611d44929091899189918291850190849080828437600092019190915250889250614f0b915050565b86611e488288887fffffffffffffffffffffffffffffffffffffffffffffffffffffffffffffffff8101818110611d7757fe5b9050602002013573ffffffffffffffffffffffffffffffffffffffff1673ffffffffffffffffffffffffffffffffffffffff166370a08231886040518263ffffffff1660e01b8152600401808273ffffffffffffffffffffffffffffffffffffffff1673ffffffffffffffffffffffffffffffffffffffff16815260200191505060206040518083038186803b158015611e1057600080fd5b505afa158015611e24573d6000803e3d6000fd5b505050506040513d6020811015611e3a57600080fd5b50519063ffffffff6153ee16565b1015611e9f576040517f08c379a0000000000000000000000000000000000000000000000000000000008152600401808060200182810382526028815260200180615eda6028913960400191505060405180910390fd5b5050505050505050565b611eb1615460565b60005473ffffffffffffffffffffffffffffffffffffffff908116911614611f3a57604080517f08c379a000000000000000000000000000000000000000000000000000000000815260206004820181905260248201527f4f776e61626c653a2063616c6c6572206973206e6f7420746865206f776e6572604482015290519081900360640190fd5b6000805460405173ffffffffffffffffffffffffffffffffffffffff909116907f8be0079c531659141344cd1fd0a4f28419497f9722a3daafe3b4186f6b6457e0908390a3600080547fffffffffffffffffffffffff0000000000000000000000000000000000000000169055565b804281101561201957604080517f08c379a000000000000000000000000000000000000000000000000000000000815260206004820152601560248201527f57696e657279526f757465723a20455850495245440000000000000000000000604482015290519081900360640190fd5b73ffffffffffffffffffffffffffffffffffffffff7f00000000000000000000000000000000000000000000000000000000000000001685857fffffffffffffffffffffffffffffffffffffffffffffffffffffffffffffffff810181811061207e57fe5b9050602002013573ffffffffffffffffffffffffffffffffffffffff1673ffffffffffffffffffffffffffffffffffffffff161461211d57604080517f08c379a000000000000000000000000000000000000000000000000000000000815260206004820152601a60248201527f57696e657279526f757465723a20494e56414c49445f50415448000000000000604482015290519081900360640190fd5b61212d85856000818110611b9057fe5b61216b858580806020026020016040519081016040528093929190818152602001838360200280828437600092019190915250309250614f0b915050565b604080517f70a08231000000000000000000000000000000000000000000000000000000008152306004820152905160009173ffffffffffffffffffffffffffffffffffffffff7f000000000000000000000000000000000000000000000000000000000000000016916370a0823191602480820192602092909190829003018186803b1580156121fb57600080fd5b505afa15801561220f573d6000803e3d6000fd5b505050506040513d602081101561222557600080fd5b5051905086811015612282576040517f08c379a0000000000000000000000000000000000000000000000000000000008152600401808060200182810382526028815260200180615eda6028913960400191505060405180910390fd5b7f000000000000000000000000000000000000000000000000000000000000000073ffffffffffffffffffffffffffffffffffffffff16632e1a7d4d826040518263ffffffff1660e01b815260040180828152602001915050600060405180830381600087803b1580156122f557600080fd5b505af1158015612309573d6000803e3d6000fd5b50505050611e9f8482614236565b6060814281101561238957604080517f08c379a000000000000000000000000000000000000000000000000000000000815260206004820152601560248201527f57696e657279526f757465723a20455850495245440000000000000000000000604482015290519081900360640190fd5b7f000000000000000000000000000000000000000000000000000000000000000073ffffffffffffffffffffffffffffffffffffffff16868660008181106123cd57fe5b9050602002013573ffffffffffffffffffffffffffffffffffffffff1673ffffffffffffffffffffffffffffffffffffffff161461246c57604080517f08c379a000000000000000000000000000000000000000000000000000000000815260206004820152601a60248201527f57696e657279526f757465723a20494e56414c49445f50415448000000000000604482015290519081900360640190fd5b6124ca7f00000000000000000000000000000000000000000000000000000000000000003488888080602002602001604051908101604052809392919081815260200183836020028082843760009201919091525061437392505050565b915086826001845103815181106124dd57fe5b6020026020010151101561253c576040517f08c379a0000000000000000000000000000000000000000000000000000000008152600401808060200182810382526028815260200180615eda6028913960400191505060405180910390fd5b7f000000000000000000000000000000000000000000000000000000000000000073ffffffffffffffffffffffffffffffffffffffff1663d0e30db08360008151811061258557fe5b60200260200101516040518263ffffffff1660e01b81526004016000604051808303818588803b1580156125b857600080fd5b505af11580156125cc573d6000803e3d6000fd5b50505050507f000000000000000000000000000000000000000000000000000000000000000073ffffffffffffffffffffffffffffffffffffffff1663a9059cbb61263e7f000000000000000000000000000000000000000000000000000000000000000089896000818110611bdf57fe5b8460008151811061264b57fe5b60200260200101516040518363ffffffff1660e01b8152600401808373ffffffffffffffffffffffffffffffffffffffff1673ffffffffffffffffffffffffffffffffffffffff16815260200182815260200192505050602060405180830381600087803b1580156126bc57600080fd5b505af11580156126d0573d6000803e3d6000fd5b505050506040513d60208110156126e657600080fd5b50516126ee57fe5b61272d82878780806020026020016040519081016040528093929190818152602001838360200280828437600092019190915250899250614790915050565b5095945050505050565b606081428110156127a957604080517f08c379a000000000000000000000000000000000000000000000000000000000815260206004820152601560248201527f57696e657279526f757465723a20455850495245440000000000000000000000604482015290519081900360640190fd5b6128077f000000000000000000000000000000000000000000000000000000000000000089888880806020026020016040519081016040528093929190818152602001838360200280828437600092019190915250614aed92505050565b9150868260008151811061281757fe5b60200260200101511115612876576040517f08c379a0000000000000000000000000000000000000000000000000000000008152600401808060200182810382526024815260200180615dd16024913960400191505060405180910390fd5b8585600081811061288357fe5b9050602002013573ffffffffffffffffffffffffffffffffffffffff1673ffffffffffffffffffffffffffffffffffffffff166323b872dd336128ed7f00000000000000000000000000000000000000000000000000000000000000008a8a60008181106112de57fe5b856000815181106128fa57fe5b60200260200101516040518463ffffffff1660e01b8152600401808473ffffffffffffffffffffffffffffffffffffffff1673ffffffffffffffffffffffffffffffffffffffff1681526020018373ffffffffffffffffffffffffffffffffffffffff1673ffffffffffffffffffffffffffffffffffffffff1681526020018281526020019350505050602060405180830381600087803b15801561299e57600080fd5b505af11580156129b2573d6000803e3d6000fd5b505050506040513d60208110156129c857600080fd5b50506040805160208781028281018201909352878252611446928592918a918a91829190850190849080828437600092019190915250899250614790915050565b60005473ffffffffffffffffffffffffffffffffffffffff1690565b60015473ffffffffffffffffffffffffffffffffffffffff1681565b7f000000000000000000000000000000000000000000000000000000000000000081565b6000612a72848484615464565b949350505050565b60008142811015612aec57604080517f08c379a000000000000000000000000000000000000000000000000000000000815260206004820152601560248201527f57696e657279526f757465723a20455850495245440000000000000000000000604482015290519081900360640190fd5b612b1b887f0000000000000000000000000000000000000000000000000000000000000000898989308961313d565b604080517f70a082310000000000000000000000000000000000000000000000000000000081523060048201529051919450612bc592508a91879173ffffffffffffffffffffffffffffffffffffffff8416916370a0823191602480820192602092909190829003018186803b158015612b9457600080fd5b505afa158015612ba8573d6000803e3d6000fd5b505050506040513d6020811015612bbe57600080fd5b505161406f565b7f000000000000000000000000000000000000000000000000000000000000000073ffffffffffffffffffffffffffffffffffffffff16632e1a7d4d836040518263ffffffff1660e01b815260040180828152602001915050600060405180830381600087803b158015612c3857600080fd5b505af1158015612c4c573d6000803e3d6000fd5b505050506114468483614236565b8042811015612cca57604080517f08c379a000000000000000000000000000000000000000000000000000000000815260206004820152601560248201527f57696e657279526f757465723a20455850495245440000000000000000000000604482015290519081900360640190fd5b7f000000000000000000000000000000000000000000000000000000000000000073ffffffffffffffffffffffffffffffffffffffff1685856000818110612d0e57fe5b9050602002013573ffffffffffffffffffffffffffffffffffffffff1673ffffffffffffffffffffffffffffffffffffffff1614612dad57604080517f08c379a000000000000000000000000000000000000000000000000000000000815260206004820152601a60248201527f57696e657279526f757465723a20494e56414c49445f50415448000000000000604482015290519081900360640190fd5b60003490507f000000000000000000000000000000000000000000000000000000000000000073ffffffffffffffffffffffffffffffffffffffff1663d0e30db0826040518263ffffffff1660e01b81526004016000604051808303818588803b158015612e1a57600080fd5b505af1158015612e2e573d6000803e3d6000fd5b50505050507f000000000000000000000000000000000000000000000000000000000000000073ffffffffffffffffffffffffffffffffffffffff1663a9059cbb612ea07f000000000000000000000000000000000000000000000000000000000000000089896000818110611bdf57fe5b836040518363ffffffff1660e01b8152600401808373ffffffffffffffffffffffffffffffffffffffff1673ffffffffffffffffffffffffffffffffffffffff16815260200182815260200192505050602060405180830381600087803b158015612f0a57600080fd5b505af1158015612f1e573d6000803e3d6000fd5b505050506040513d6020811015612f3457600080fd5b5051612f3c57fe5b600086867fffffffffffffffffffffffffffffffffffffffffffffffffffffffffffffffff8101818110612f6c57fe5b9050602002013573ffffffffffffffffffffffffffffffffffffffff1673ffffffffffffffffffffffffffffffffffffffff166370a08231866040518263ffffffff1660e01b8152600401808273ffffffffffffffffffffffffffffffffffffffff1673ffffffffffffffffffffffffffffffffffffffff16815260200191505060206040518083038186803b15801561300557600080fd5b505afa158015613019573d6000803e3d6000fd5b505050506040513d602081101561302f57600080fd5b505160408051602089810282810182019093528982529293506130719290918a918a918291850190849080828437600092019190915250899250614f0b915050565b87611e488289897fffffffffffffffffffffffffffffffffffffffffffffffffffffffffffffffff81018181106130a457fe5b9050602002013573ffffffffffffffffffffffffffffffffffffffff1673ffffffffffffffffffffffffffffffffffffffff166370a08231896040518263ffffffff1660e01b8152600401808273ffffffffffffffffffffffffffffffffffffffff1673ffffffffffffffffffffffffffffffffffffffff16815260200191505060206040518083038186803b158015611e1057600080fd5b60008082428110156131b057604080517f08c379a000000000000000000000000000000000000000000000000000000000815260206004820152601560248201527f57696e657279526f757465723a20455850495245440000000000000000000000604482015290519081900360640190fd5b60006131dd7f00000000000000000000000000000000000000000000000000000000000000008c8c614513565b604080517f23b872dd00000000000000000000000000000000000000000000000000000000815233600482015273ffffffffffffffffffffffffffffffffffffffff831660248201819052604482018d9052915192935090916323b872dd916064808201926020929091908290030181600087803b15801561325e57600080fd5b505af1158015613272573d6000803e3d6000fd5b505050506040513d602081101561328857600080fd5b5050604080517f89afcb4400000000000000000000000000000000000000000000000000000000815273ffffffffffffffffffffffffffffffffffffffff888116600483015282516000938493928616926389afcb44926024808301939282900301818787803b1580156132fb57600080fd5b505af115801561330f573d6000803e3d6000fd5b505050506040513d604081101561332557600080fd5b5080516020909101519092509050600061333f8e8e615544565b5090508073ffffffffffffffffffffffffffffffffffffffff168e73ffffffffffffffffffffffffffffffffffffffff161461337c57818361337f565b82825b90975095508a8710156133dd576040517f08c379a0000000000000000000000000000000000000000000000000000000008152600401808060200182810382526023815260200180615d496023913960400191505060405180910390fd5b89861015613436576040517f08c379a0000000000000000000000000000000000000000000000000000000008152600401808060200182810382526023815260200180615e686023913960400191505060405180910390fd5b505050505097509795505050505050565b7f000000000000000000000000000000000000000000000000000000000000000081565b606061147e7f00000000000000000000000000000000000000000000000000000000000000008484614373565b60008060006134e87f00000000000000000000000000000000000000000000000000000000000000008e7f0000000000000000000000000000000000000000000000000000000000000000614513565b90506000876134f7578c613519565b7fffffffffffffffffffffffffffffffffffffffffffffffffffffffffffffffff5b604080517fd505accf00000000000000000000000000000000000000000000000000000000815233600482015230602482015260448101839052606481018c905260ff8a16608482015260a4810189905260c48101889052905191925073ffffffffffffffffffffffffffffffffffffffff84169163d505accf9160e48082019260009290919082900301818387803b1580156135b557600080fd5b505af11580156135c9573d6000803e3d6000fd5b505050506135db8e8e8e8e8e8e610ee6565b909f909e509c50505050505050505050505050565b6000806000834281101561366557604080517f08c379a000000000000000000000000000000000000000000000000000000000815260206004820152601560248201527f57696e657279526f757465723a20455850495245440000000000000000000000604482015290519081900360640190fd5b6136738c8c8c8c8c8c615697565b909450925060006136a57f00000000000000000000000000000000000000000000000000000000000000008e8e614513565b90506136b38d3383886145c0565b6136bf8c3383876145c0565b8073ffffffffffffffffffffffffffffffffffffffff16636a627842886040518263ffffffff1660e01b8152600401808273ffffffffffffffffffffffffffffffffffffffff1673ffffffffffffffffffffffffffffffffffffffff168152602001915050602060405180830381600087803b15801561373e57600080fd5b505af1158015613752573d6000803e3d6000fd5b505050506040513d602081101561376857600080fd5b5051949d939c50939a509198505050505050505050565b613787615460565b60005473ffffffffffffffffffffffffffffffffffffffff90811691161461381057604080517f08c379a000000000000000000000000000000000000000000000000000000000815260206004820181905260248201527f4f776e61626c653a2063616c6c6572206973206e6f7420746865206f776e6572604482015290519081900360640190fd5b61381981615998565b50565b6000806000834281101561389157604080517f08c379a000000000000000000000000000000000000000000000000000000000815260206004820152601560248201527f57696e657279526f757465723a20455850495245440000000000000000000000604482015290519081900360640190fd5b6138bf8a7f00000000000000000000000000000000000000000000000000000000000000008b348c8c615697565b909450925060006139117f00000000000000000000000000000000000000000000000000000000000000008c7f0000000000000000000000000000000000000000000000000000000000000000614513565b905061391f8b3383886145c0565b7f000000000000000000000000000000000000000000000000000000000000000073ffffffffffffffffffffffffffffffffffffffff1663d0e30db0856040518263ffffffff1660e01b81526004016000604051808303818588803b15801561398757600080fd5b505af115801561399b573d6000803e3d6000fd5b50505050507f000000000000000000000000000000000000000000000000000000000000000073ffffffffffffffffffffffffffffffffffffffff1663a9059cbb82866040518363ffffffff1660e01b8152600401808373ffffffffffffffffffffffffffffffffffffffff1673ffffffffffffffffffffffffffffffffffffffff16815260200182815260200192505050602060405180830381600087803b158015613a4757600080fd5b505af1158015613a5b573d6000803e3d6000fd5b505050506040513d6020811015613a7157600080fd5b5051613a7957fe5b8073ffffffffffffffffffffffffffffffffffffffff16636a627842886040518263ffffffff1660e01b8152600401808273ffffffffffffffffffffffffffffffffffffffff1673ffffffffffffffffffffffffffffffffffffffff168152602001915050602060405180830381600087803b158015613af857600080fd5b505af1158015613b0c573d6000803e3d6000fd5b505050506040513d6020811015613b2257600080fd5b5051925034841015613b3a57613b3a33853403614236565b505096509650969350505050565b60608142811015613bba57604080517f08c379a000000000000000000000000000000000000000000000000000000000815260206004820152601560248201527f57696e657279526f757465723a20455850495245440000000000000000000000604482015290519081900360640190fd5b7f000000000000000000000000000000000000000000000000000000000000000073ffffffffffffffffffffffffffffffffffffffff1686866000818110613bfe57fe5b9050602002013573ffffffffffffffffffffffffffffffffffffffff1673ffffffffffffffffffffffffffffffffffffffff1614613c9d57604080517f08c379a000000000000000000000000000000000000000000000000000000000815260206004820152601a60248201527f57696e657279526f757465723a20494e56414c49445f50415448000000000000604482015290519081900360640190fd5b613cfb7f000000000000000000000000000000000000000000000000000000000000000088888880806020026020016040519081016040528093929190818152602001838360200280828437600092019190915250614aed92505050565b91503482600081518110613d0b57fe5b60200260200101511115613d6a576040517f08c379a0000000000000000000000000000000000000000000000000000000008152600401808060200182810382526024815260200180615dd16024913960400191505060405180910390fd5b7f000000000000000000000000000000000000000000000000000000000000000073ffffffffffffffffffffffffffffffffffffffff1663d0e30db083600081518110613db357fe5b60200260200101516040518263ffffffff1660e01b81526004016000604051808303818588803b158015613de657600080fd5b505af1158015613dfa573d6000803e3d6000fd5b50505050507f000000000000000000000000000000000000000000000000000000000000000073ffffffffffffffffffffffffffffffffffffffff1663a9059cbb613e6c7f000000000000000000000000000000000000000000000000000000000000000089896000818110611bdf57fe5b84600081518110613e7957fe5b60200260200101516040518363ffffffff1660e01b8152600401808373ffffffffffffffffffffffffffffffffffffffff1673ffffffffffffffffffffffffffffffffffffffff16815260200182815260200192505050602060405180830381600087803b158015613eea57600080fd5b505af1158015613efe573d6000803e3d6000fd5b505050506040513d6020811015613f1457600080fd5b5051613f1c57fe5b613f5b82878780806020026020016040519081016040528093929190818152602001838360200280828437600092019190915250899250614790915050565b81600081518110613f6857fe5b602002602001015134111561272d5761272d3383600081518110613f8857fe5b60200260200101513403614236565b613f9f615460565b60005473ffffffffffffffffffffffffffffffffffffffff90811691161461402857604080517f08c379a000000000000000000000000000000000000000000000000000000000815260206004820181905260248201527f4f776e61626c653a2063616c6c6572206973206e6f7420746865206f776e6572604482015290519081900360640190fd5b600180547fffffffffffffffffffffffff00000000000000000000000000000000000000001673ffffffffffffffffffffffffffffffffffffffff92909216919091179055565b6040805173ffffffffffffffffffffffffffffffffffffffff8481166024830152604480830185905283518084039091018152606490920183526020820180517bffffffffffffffffffffffffffffffffffffffffffffffffffffffff167fa9059cbb00000000000000000000000000000000000000000000000000000000178152925182516000946060949389169392918291908083835b6020831061414557805182527fffffffffffffffffffffffffffffffffffffffffffffffffffffffffffffffe09092019160209182019101614108565b6001836020036101000a0380198251168184511680821785525050505050509050019150506000604051808303816000865af19150503d80600081146141a7576040519150601f19603f3d011682016040523d82523d6000602084013e6141ac565b606091505b50915091508180156141da5750805115806141da57508080602001905160208110156141d757600080fd5b50515b61422f576040517f08c379a000000000000000000000000000000000000000000000000000000000815260040180806020018281038252602d815260200180615ead602d913960400191505060405180910390fd5b5050505050565b6040805160008082526020820190925273ffffffffffffffffffffffffffffffffffffffff84169083906040518082805190602001908083835b602083106142ad57805182527fffffffffffffffffffffffffffffffffffffffffffffffffffffffffffffffe09092019160209182019101614270565b6001836020036101000a03801982511681845116808217855250505050505090500191505060006040518083038185875af1925050503d806000811461430f576040519150601f19603f3d011682016040523d82523d6000602084013e614314565b606091505b505090508061436e576040517f08c379a0000000000000000000000000000000000000000000000000000000008152600401808060200182810382526034815260200180615d9d6034913960400191505060405180910390fd5b505050565b60606002825110156143e657604080517f08c379a000000000000000000000000000000000000000000000000000000000815260206004820152601b60248201527f57696e6572794c6962726172793a20494e56414c49445f504154480000000000604482015290519081900360640190fd5b815167ffffffffffffffff811180156143fe57600080fd5b50604051908082528060200260200182016040528015614428578160200160208202803683370190505b509050828160008151811061443957fe5b60200260200101818152505060005b600183510381101561450b5760008061448b8786858151811061446757fe5b602002602001015187866001018151811061447e57fe5b6020026020010151615a91565b9150915060006144e38585815181106144a057fe5b602002602001015184846144de8c8b8a815181106144ba57fe5b60200260200101518c8b600101815181106144d157fe5b6020026020010151615b79565b614ca2565b9050808585600101815181106144f557fe5b6020908102919091010152505050600101614448565b509392505050565b604080517fe6a4390500000000000000000000000000000000000000000000000000000000815273ffffffffffffffffffffffffffffffffffffffff84811660048301528381166024830152915160009286169163e6a43905916044808301926020929190829003018186803b15801561458c57600080fd5b505afa1580156145a0573d6000803e3d6000fd5b505050506040513d60208110156145b657600080fd5b5051949350505050565b6040805173ffffffffffffffffffffffffffffffffffffffff85811660248301528481166044830152606480830185905283518084039091018152608490920183526020820180517bffffffffffffffffffffffffffffffffffffffffffffffffffffffff167f23b872dd0000000000000000000000000000000000000000000000000000000017815292518251600094606094938a169392918291908083835b6020831061469e57805182527fffffffffffffffffffffffffffffffffffffffffffffffffffffffffffffffe09092019160209182019101614661565b6001836020036101000a0380198251168184511680821785525050505050509050019150506000604051808303816000865af19150503d8060008114614700576040519150601f19603f3d011682016040523d82523d6000602084013e614705565b606091505b5091509150818015614733575080511580614733575080806020019051602081101561473057600080fd5b50515b614788576040517f08c379a0000000000000000000000000000000000000000000000000000000008152600401808060200182810382526031815260200180615d6c6031913960400191505060405180910390fd5b505050505050565b60005b6001835103811015614ae7576000808483815181106147ae57fe5b60200260200101518584600101815181106147c557fe5b60200260200101519150915060006147dd8383615544565b50905060008785600101815181106147f157fe5b602002602001015190506000808373ffffffffffffffffffffffffffffffffffffffff168673ffffffffffffffffffffffffffffffffffffffff16146148395782600061483d565b6000835b600154919350915073ffffffffffffffffffffffffffffffffffffffff161561491757600154604080517fa9678a1800000000000000000000000000000000000000000000000000000000815233600482015273ffffffffffffffffffffffffffffffffffffffff89811660248301528881166044830152606482018790529151919092169163a9678a189160848083019260209291908290030181600087803b1580156148ea57600080fd5b505af11580156148fe573d6000803e3d6000fd5b505050506040513d602081101561491457600080fd5b50505b600060028a5103881061492a578861496b565b61496b7f0000000000000000000000000000000000000000000000000000000000000000878c8b6002018151811061495e57fe5b6020026020010151614513565b90506149987f00000000000000000000000000000000000000000000000000000000000000008888614513565b73ffffffffffffffffffffffffffffffffffffffff1663022c0d9f84848460006040519080825280601f01601f1916602001820160405280156149e2576020820181803683370190505b506040518563ffffffff1660e01b8152600401808581526020018481526020018373ffffffffffffffffffffffffffffffffffffffff1673ffffffffffffffffffffffffffffffffffffffff16815260200180602001828103825283818151815260200191508051906020019080838360005b83811015614a6d578181015183820152602001614a55565b50505050905090810190601f168015614a9a5780820380516001836020036101000a031916815260200191505b5095505050505050600060405180830381600087803b158015614abc57600080fd5b505af1158015614ad0573d6000803e3d6000fd5b505060019099019850614793975050505050505050565b50505050565b6060600282511015614b6057604080517f08c379a000000000000000000000000000000000000000000000000000000000815260206004820152601b60248201527f57696e6572794c6962726172793a20494e56414c49445f504154480000000000604482015290519081900360640190fd5b815167ffffffffffffffff81118015614b7857600080fd5b50604051908082528060200260200182016040528015614ba2578160200160208202803683370190505b5090508281600183510381518110614bb657fe5b602090810291909101015281517fffffffffffffffffffffffffffffffffffffffffffffffffffffffffffffffff015b801561450b57600080614c1687866001860381518110614c0257fe5b602002602001015187868151811061447e57fe5b91509150614c5f848481518110614c2957fe5b60200260200101518383614c5a8b8a60018a0381518110614c4657fe5b60200260200101518b8a815181106144d157fe5b614dd7565b846001850381518110614c6e57fe5b602090810291909101015250507fffffffffffffffffffffffffffffffffffffffffffffffffffffffffffffffff01614be6565b6000808511614cfc576040517f08c379a0000000000000000000000000000000000000000000000000000000008152600401808060200182810382526028815260200180615e176028913960400191505060405180910390fd5b600084118015614d0c5750600083115b614d61576040517f08c379a0000000000000000000000000000000000000000000000000000000008152600401808060200182810382526025815260200180615cfe6025913960400191505060405180910390fd5b6000614d85614d786127108563ffffffff6153ee16565b879063ffffffff615c0516565b90506000614d99828663ffffffff615c0516565b90506000614dbf83614db38961271063ffffffff615c0516565b9063ffffffff615c8b16565b9050808281614dca57fe5b0498975050505050505050565b6000808511614e31576040517f08c379a0000000000000000000000000000000000000000000000000000000008152600401808060200182810382526029815260200180615e3f6029913960400191505060405180910390fd5b600084118015614e415750600083115b614e96576040517f08c379a0000000000000000000000000000000000000000000000000000000008152600401808060200182810382526025815260200180615cfe6025913960400191505060405180910390fd5b6000614eba612710614eae878963ffffffff615c0516565b9063ffffffff615c0516565b90506000614ee3614ed36127108663ffffffff6153ee16565b614eae878a63ffffffff6153ee16565b9050614f006001828481614ef357fe5b049063ffffffff615c8b16565b979650505050505050565b60005b600183510381101561436e57600080848381518110614f2957fe5b6020026020010151858460010181518110614f4057fe5b6020026020010151915091506000614f588383615544565b5090506000614f887f00000000000000000000000000000000000000000000000000000000000000008585614513565b90506000806000808473ffffffffffffffffffffffffffffffffffffffff16630902f1ac6040518163ffffffff1660e01b815260040160606040518083038186803b158015614fd657600080fd5b505afa158015614fea573d6000803e3d6000fd5b505050506040513d606081101561500057600080fd5b5080516020909101516dffffffffffffffffffffffffffff918216935016905060008073ffffffffffffffffffffffffffffffffffffffff8a81169089161461504a57828461504d565b83835b915091506150d2828b73ffffffffffffffffffffffffffffffffffffffff166370a082318a6040518263ffffffff1660e01b8152600401808273ffffffffffffffffffffffffffffffffffffffff1673ffffffffffffffffffffffffffffffffffffffff16815260200191505060206040518083038186803b158015611e1057600080fd5b95506151578683838a73ffffffffffffffffffffffffffffffffffffffff166354cf2aeb6040518163ffffffff1660e01b815260040160206040518083038186803b15801561512057600080fd5b505afa158015615134573d6000803e3d6000fd5b505050506040513d602081101561514a57600080fd5b505163ffffffff16614ca2565b60015490955073ffffffffffffffffffffffffffffffffffffffff161593506152359250505057600154604080517fa9678a1800000000000000000000000000000000000000000000000000000000815233600482015273ffffffffffffffffffffffffffffffffffffffff89811660248301528881166044830152606482018590529151919092169163a9678a189160848083019260209291908290030181600087803b15801561520857600080fd5b505af115801561521c573d6000803e3d6000fd5b505050506040513d602081101561523257600080fd5b50505b6000808573ffffffffffffffffffffffffffffffffffffffff168873ffffffffffffffffffffffffffffffffffffffff161461527357826000615277565b6000835b91509150600060028c51038a1061528e578a6152c2565b6152c27f0000000000000000000000000000000000000000000000000000000000000000898e8d6002018151811061495e57fe5b60408051600080825260208201928390527f022c0d9f000000000000000000000000000000000000000000000000000000008352602482018781526044830187905273ffffffffffffffffffffffffffffffffffffffff8086166064850152608060848501908152845160a48601819052969750908c169563022c0d9f958a958a958a9591949193919260c486019290918190849084905b8381101561537257818101518382015260200161535a565b50505050905090810190601f16801561539f5780820380516001836020036101000a031916815260200191505b5095505050505050600060405180830381600087803b1580156153c157600080fd5b505af11580156153d5573d6000803e3d6000fd5b50506001909b019a50614f0e9950505050505050505050565b8082038281111561148157604080517f08c379a000000000000000000000000000000000000000000000000000000000815260206004820152601560248201527f64732d6d6174682d7375622d756e646572666c6f770000000000000000000000604482015290519081900360640190fd5b3390565b60008084116154be576040517f08c379a0000000000000000000000000000000000000000000000000000000008152600401808060200182810382526022815260200180615e8b6022913960400191505060405180910390fd5b6000831180156154ce5750600082115b615523576040517f08c379a0000000000000000000000000000000000000000000000000000000008152600401808060200182810382526025815260200180615cfe6025913960400191505060405180910390fd5b82615534858463ffffffff615c0516565b8161553b57fe5b04949350505050565b6000808273ffffffffffffffffffffffffffffffffffffffff168473ffffffffffffffffffffffffffffffffffffffff1614156155cc576040517f08c379a0000000000000000000000000000000000000000000000000000000008152600401808060200182810382526022815260200180615df56022913960400191505060405180910390fd5b8273ffffffffffffffffffffffffffffffffffffffff168473ffffffffffffffffffffffffffffffffffffffff1610615606578284615609565b83835b909250905073ffffffffffffffffffffffffffffffffffffffff821661569057604080517f08c379a000000000000000000000000000000000000000000000000000000000815260206004820152601b60248201527f57696e6572794c6962726172793a205a45524f5f414444524553530000000000604482015290519081900360640190fd5b9250929050565b604080517fe6a4390500000000000000000000000000000000000000000000000000000000815273ffffffffffffffffffffffffffffffffffffffff888116600483015287811660248301529151600092839283927f00000000000000000000000000000000000000000000000000000000000000009092169163e6a4390591604480820192602092909190829003018186803b15801561573757600080fd5b505afa15801561574b573d6000803e3d6000fd5b505050506040513d602081101561576157600080fd5b505173ffffffffffffffffffffffffffffffffffffffff16141561584757604080517fc9c6539600000000000000000000000000000000000000000000000000000000815273ffffffffffffffffffffffffffffffffffffffff8a81166004830152898116602483015291517f00000000000000000000000000000000000000000000000000000000000000009092169163c9c65396916044808201926020929091908290030181600087803b15801561581a57600080fd5b505af115801561582e573d6000803e3d6000fd5b505050506040513d602081101561584457600080fd5b50505b6000806158757f00000000000000000000000000000000000000000000000000000000000000008b8b615a91565b91509150816000148015615887575080155b156158975787935086925061598b565b60006158a4898484615464565b90508781116159115785811015615906576040517f08c379a0000000000000000000000000000000000000000000000000000000008152600401808060200182810382526023815260200180615e686023913960400191505060405180910390fd5b889450925082615989565b600061591e898486615464565b90508981111561592a57fe5b87811015615983576040517f08c379a0000000000000000000000000000000000000000000000000000000008152600401808060200182810382526023815260200180615d496023913960400191505060405180910390fd5b94508793505b505b5050965096945050505050565b73ffffffffffffffffffffffffffffffffffffffff8116615a04576040517f08c379a0000000000000000000000000000000000000000000000000000000008152600401808060200182810382526026815260200180615d236026913960400191505060405180910390fd5b6000805460405173ffffffffffffffffffffffffffffffffffffffff808516939216917f8be0079c531659141344cd1fd0a4f28419497f9722a3daafe3b4186f6b6457e091a3600080547fffffffffffffffffffffffff00000000000000000000000000000000000000001673ffffffffffffffffffffffffffffffffffffffff92909216919091179055565b6000806000615aa08585615544565b509050600080615ab1888888614513565b73ffffffffffffffffffffffffffffffffffffffff16630902f1ac6040518163ffffffff1660e01b815260040160606040518083038186803b158015615af657600080fd5b505afa158015615b0a573d6000803e3d6000fd5b505050506040513d6060811015615b2057600080fd5b5080516020909101516dffffffffffffffffffffffffffff918216935016905073ffffffffffffffffffffffffffffffffffffffff87811690841614615b67578082615b6a565b81815b90999098509650505050505050565b6000615b86848484614513565b73ffffffffffffffffffffffffffffffffffffffff166354cf2aeb6040518163ffffffff1660e01b815260040160206040518083038186803b158015615bcb57600080fd5b505afa158015615bdf573d6000803e3d6000fd5b505050506040513d6020811015615bf557600080fd5b505163ffffffff16949350505050565b6000811580615c2057505080820282828281615c1d57fe5b04145b61148157604080517f08c379a000000000000000000000000000000000000000000000000000000000815260206004820152601460248201527f64732d6d6174682d6d756c2d6f766572666c6f77000000000000000000000000604482015290519081900360640190fd5b8082018281101561148157604080517f08c379a000000000000000000000000000000000000000000000000000000000815260206004820152601460248201527f64732d6d6174682d6164642d6f766572666c6f77000000000000000000000000604482015290519081900360640190fdfe57696e6572794c6962726172793a20494e53554646494349454e545f4c49515549444954594f776e61626c653a206e6577206f776e657220697320746865207a65726f206164647265737357696e657279526f757465723a20494e53554646494349454e545f415f414d4f554e545472616e7366657248656c7065723a3a7472616e7366657246726f6d3a207472616e7366657246726f6d206661696c65645472616e7366657248656c7065723a3a736166655472616e736665724554483a20455448207472616e73666572206661696c656457696e657279526f757465723a204558434553534956455f494e5055545f414d4f554e5457696e6572794c6962726172793a204944454e544943414c5f41444452455353455357696e6572794c6962726172793a20494e53554646494349454e545f494e5055545f414d4f554e5457696e6572794c6962726172793a20494e53554646494349454e545f4f55545055545f414d4f554e5457696e657279526f757465723a20494e53554646494349454e545f425f414d4f554e5457696e6572794c6962726172793a20494e53554646494349454e545f414d4f554e545472616e7366657248656c7065723a3a736166655472616e736665723a207472616e73666572206661696c656457696e657279526f757465723a20494e53554646494349454e545f4f55545055545f414d4f554e54a2646970667358221220c17fd5713668764239f42d278a010b35256640fe7ba1347c928b8707e0a5a70a64736f6c63430006060033",
  "devdoc": {
    "methods": {
      "owner()": {
        "details": "Returns the address of the current owner."
      },
      "renounceOwnership()": {
        "details": "Leaves the contract without owner. It will not be possible to call `onlyOwner` functions anymore. Can only be called by the current owner.     * NOTE: Renouncing ownership will leave the contract without an owner, thereby removing any functionality that is only available to the owner."
      },
      "transferOwnership(address)": {
        "details": "Transfers ownership of the contract to a new account (`newOwner`). Can only be called by the current owner."
      }
    }
  },
  "userdoc": {
    "methods": {}
  },
  "storageLayout": {
    "storage": [
      {
        "astId": 34,
        "contract": "contracts/swap/Router.sol:Router",
        "label": "_owner",
        "offset": 0,
        "slot": "0",
        "type": "t_address"
      },
      {
        "astId": 333,
        "contract": "contracts/swap/Router.sol:Router",
        "label": "swapFeeReward",
        "offset": 0,
        "slot": "1",
        "type": "t_address"
      }
    ],
    "types": {
      "t_address": {
        "encoding": "inplace",
        "label": "address",
        "numberOfBytes": "20"
      }
    }
  }
}