{
  "address": "0x5FC8d32690cc91D4c39d9d3abcBD16989F875707",
  "abi": [
    {
      "anonymous": false,
      "inputs": [
        {
          "indexed": true,
          "internalType": "address",
          "name": "owner",
          "type": "address"
        },
        {
          "indexed": true,
          "internalType": "address",
          "name": "spender",
          "type": "address"
        },
        {
          "indexed": false,
          "internalType": "uint256",
          "name": "value",
          "type": "uint256"
        }
      ],
      "name": "Approval",
      "type": "event"
    },
    {
      "anonymous": false,
      "inputs": [
        {
          "indexed": false,
          "internalType": "uint256",
          "name": "amount",
          "type": "uint256"
        }
      ],
      "name": "Burn",
      "type": "event"
    },
    {
      "anonymous": false,
      "inputs": [
        {
          "indexed": false,
          "internalType": "uint8",
          "name": "version",
          "type": "uint8"
        }
      ],
      "name": "Initialized",
      "type": "event"
    },
    {
      "anonymous": false,
      "inputs": [
        {
          "indexed": false,
          "internalType": "uint256",
          "name": "amount",
          "type": "uint256"
        }
      ],
      "name": "Issue",
      "type": "event"
    },
    {
      "anonymous": false,
      "inputs": [
        {
          "indexed": true,
          "internalType": "address",
          "name": "previousOwner",
          "type": "address"
        },
        {
          "indexed": true,
          "internalType": "address",
          "name": "newOwner",
          "type": "address"
        }
      ],
      "name": "OwnershipTransferred",
      "type": "event"
    },
    {
      "anonymous": false,
      "inputs": [
        {
          "indexed": false,
          "internalType": "address",
          "name": "account",
          "type": "address"
        }
      ],
      "name": "Paused",
      "type": "event"
    },
    {
      "anonymous": false,
      "inputs": [
        {
          "indexed": true,
          "internalType": "address",
          "name": "from",
          "type": "address"
        },
        {
          "indexed": true,
          "internalType": "address",
          "name": "to",
          "type": "address"
        },
        {
          "indexed": false,
          "internalType": "uint256",
          "name": "value",
          "type": "uint256"
        }
      ],
      "name": "Transfer",
      "type": "event"
    },
    {
      "anonymous": false,
      "inputs": [
        {
          "indexed": false,
          "internalType": "address",
          "name": "account",
          "type": "address"
        }
      ],
      "name": "Unpaused",
      "type": "event"
    },
    {
      "inputs": [
        {
          "internalType": "address",
          "name": "owner",
          "type": "address"
        },
        {
          "internalType": "address",
          "name": "spender",
          "type": "address"
        }
      ],
      "name": "allowance",
      "outputs": [
        {
          "internalType": "uint256",
          "name": "",
          "type": "uint256"
        }
      ],
      "stateMutability": "view",
      "type": "function"
    },
    {
      "inputs": [
        {
          "internalType": "address",
          "name": "spender",
          "type": "address"
        },
        {
          "internalType": "uint256",
          "name": "amount",
          "type": "uint256"
        }
      ],
      "name": "approve",
      "outputs": [
        {
          "internalType": "bool",
          "name": "",
          "type": "bool"
        }
      ],
      "stateMutability": "nonpayable",
      "type": "function"
    },
    {
      "inputs": [
        {
          "internalType": "address",
          "name": "account",
          "type": "address"
        }
      ],
      "name": "balanceOf",
      "outputs": [
        {
          "internalType": "uint256",
          "name": "",
          "type": "uint256"
        }
      ],
      "stateMutability": "view",
      "type": "function"
    },
    {
      "inputs": [
        {
          "internalType": "uint256",
          "name": "amount",
          "type": "uint256"
        }
      ],
      "name": "burn",
      "outputs": [],
      "stateMutability": "nonpayable",
      "type": "function"
    },
    {
      "inputs": [],
      "name": "decimals",
      "outputs": [
        {
          "internalType": "uint8",
          "name": "",
          "type": "uint8"
        }
      ],
      "stateMutability": "view",
      "type": "function"
    },
    {
      "inputs": [
        {
          "internalType": "address",
          "name": "spender",
          "type": "address"
        },
        {
          "internalType": "uint256",
          "name": "subtractedValue",
          "type": "uint256"
        }
      ],
      "name": "decreaseAllowance",
      "outputs": [
        {
          "internalType": "bool",
          "name": "",
          "type": "bool"
        }
      ],
      "stateMutability": "nonpayable",
      "type": "function"
    },
    {
      "inputs": [
        {
          "internalType": "address",
          "name": "spender",
          "type": "address"
        },
        {
          "internalType": "uint256",
          "name": "addedValue",
          "type": "uint256"
        }
      ],
      "name": "increaseAllowance",
      "outputs": [
        {
          "internalType": "bool",
          "name": "",
          "type": "bool"
        }
      ],
      "stateMutability": "nonpayable",
      "type": "function"
    },
    {
      "inputs": [],
      "name": "initialize",
      "outputs": [],
      "stateMutability": "nonpayable",
      "type": "function"
    },
    {
      "inputs": [
        {
          "internalType": "uint256",
          "name": "amount",
          "type": "uint256"
        }
      ],
      "name": "issue",
      "outputs": [],
      "stateMutability": "nonpayable",
      "type": "function"
    },
    {
      "inputs": [],
      "name": "name",
      "outputs": [
        {
          "internalType": "string",
          "name": "",
          "type": "string"
        }
      ],
      "stateMutability": "view",
      "type": "function"
    },
    {
      "inputs": [],
      "name": "owner",
      "outputs": [
        {
          "internalType": "address",
          "name": "",
          "type": "address"
        }
      ],
      "stateMutability": "view",
      "type": "function"
    },
    {
      "inputs": [],
      "name": "pause",
      "outputs": [],
      "stateMutability": "nonpayable",
      "type": "function"
    },
    {
      "inputs": [],
      "name": "paused",
      "outputs": [
        {
          "internalType": "bool",
          "name": "",
          "type": "bool"
        }
      ],
      "stateMutability": "view",
      "type": "function"
    },
    {
      "inputs": [],
      "name": "renounceOwnership",
      "outputs": [],
      "stateMutability": "nonpayable",
      "type": "function"
    },
    {
      "inputs": [],
      "name": "symbol",
      "outputs": [
        {
          "internalType": "string",
          "name": "",
          "type": "string"
        }
      ],
      "stateMutability": "view",
      "type": "function"
    },
    {
      "inputs": [],
      "name": "totalSupply",
      "outputs": [
        {
          "internalType": "uint256",
          "name": "",
          "type": "uint256"
        }
      ],
      "stateMutability": "view",
      "type": "function"
    },
    {
      "inputs": [
        {
          "internalType": "address",
          "name": "to",
          "type": "address"
        },
        {
          "internalType": "uint256",
          "name": "amount",
          "type": "uint256"
        }
      ],
      "name": "transfer",
      "outputs": [
        {
          "internalType": "bool",
          "name": "",
          "type": "bool"
        }
      ],
      "stateMutability": "nonpayable",
      "type": "function"
    },
    {
      "inputs": [
        {
          "internalType": "address",
          "name": "from",
          "type": "address"
        },
        {
          "internalType": "address",
          "name": "to",
          "type": "address"
        },
        {
          "internalType": "uint256",
          "name": "amount",
          "type": "uint256"
        }
      ],
      "name": "transferFrom",
      "outputs": [
        {
          "internalType": "bool",
          "name": "",
          "type": "bool"
        }
      ],
      "stateMutability": "nonpayable",
      "type": "function"
    },
    {
      "inputs": [
        {
          "internalType": "address",
          "name": "newOwner",
          "type": "address"
        }
      ],
      "name": "transferOwnership",
      "outputs": [],
      "stateMutability": "nonpayable",
      "type": "function"
    },
    {
      "inputs": [],
      "name": "unpause",
      "outputs": [],
      "stateMutability": "nonpayable",
      "type": "function"
    }
  ],
  "numDeployments": 1,
  "solcInputHash": "38ef37e0d3b37a65148909f9a0088dfb",
  "bytecode": "0x608060405234801561001057600080fd5b5061260f806100206000396000f3fe608060405234801561001057600080fd5b506004361061012c5760003560e01c8063715018a6116100ad578063a457c2d711610071578063a457c2d7146102e9578063a9059cbb14610319578063cc872b6614610349578063dd62ed3e14610365578063f2fde38b146103955761012c565b8063715018a61461028f5780638129fc1c146102995780638456cb59146102a35780638da5cb5b146102ad57806395d89b41146102cb5761012c565b806339509351116100f457806339509351146101eb5780633f4ba83a1461021b57806342966c68146102255780635c975abb1461024157806370a082311461025f5761012c565b806306fdde0314610131578063095ea7b31461014f57806318160ddd1461017f57806323b872dd1461019d578063313ce567146101cd575b600080fd5b6101396103b1565b6040516101469190611d05565b60405180910390f35b61016960048036038101906101649190611978565b610443565b6040516101769190611ccf565b60405180910390f35b610187610466565b6040516101949190611f47565b60405180910390f35b6101b760048036038101906101b29190611929565b610470565b6040516101c49190611ccf565b60405180910390f35b6101d561049f565b6040516101e29190611f62565b60405180910390f35b61020560048036038101906102009190611978565b6104a8565b6040516102129190611ccf565b60405180910390f35b6102236104df565b005b61023f600480360381019061023a91906119b4565b6104f1565b005b61024961054c565b6040516102569190611ccf565b60405180910390f35b610279600480360381019061027491906118c4565b610563565b6040516102869190611f47565b60405180910390f35b6102976105ac565b005b6102a16105c0565b005b6102ab610798565b005b6102b56107aa565b6040516102c29190611cb4565b60405180910390f35b6102d36107d4565b6040516102e09190611d05565b60405180910390f35b61030360048036038101906102fe9190611978565b610866565b6040516103109190611ccf565b60405180910390f35b610333600480360381019061032e9190611978565b6108dd565b6040516103409190611ccf565b60405180910390f35b610363600480360381019061035e91906119b4565b610900565b005b61037f600480360381019061037a91906118ed565b61095b565b60405161038c9190611f47565b60405180910390f35b6103af60048036038101906103aa91906118c4565b6109e2565b005b6060603680546103c090612089565b80601f01602080910402602001604051908101604052809291908181526020018280546103ec90612089565b80156104395780601f1061040e57610100808354040283529160200191610439565b820191906000526020600020905b81548152906001019060200180831161041c57829003601f168201915b5050505050905090565b60008061044e610a66565b905061045b818585610a6e565b600191505092915050565b6000603554905090565b60008061047b610a66565b9050610488858285610c39565b610493858585610cc5565b60019150509392505050565b60006012905090565b6000806104b3610a66565b90506104d48185856104c5858961095b565b6104cf9190611f99565b610a6e565b600191505092915050565b6104e7610f40565b6104ef610fbe565b565b6104f9611021565b610501610f40565b61051261050c610a66565b8261106b565b7fb90306ad06b2a6ff86ddc9327db583062895ef6540e62dc50add009db5b356eb816040516105419190611f47565b60405180910390a150565b6000606560009054906101000a900460ff16905090565b6000603360008373ffffffffffffffffffffffffffffffffffffffff1673ffffffffffffffffffffffffffffffffffffffff168152602001908152602001600020549050919050565b6105b4610f40565b6105be600061123b565b565b60008060019054906101000a900460ff161590508080156105f15750600160008054906101000a900460ff1660ff16105b8061061e575061060030611301565b15801561061d5750600160008054906101000a900460ff1660ff16145b5b61065d576040517f08c379a000000000000000000000000000000000000000000000000000000000815260040161065490611e27565b60405180910390fd5b60016000806101000a81548160ff021916908360ff160217905550801561069a576001600060016101000a81548160ff0219169083151502179055505b61070e6040518060400160405280600481526020017f564e4443000000000000000000000000000000000000000000000000000000008152506040518060400160405280600481526020017f564e444300000000000000000000000000000000000000000000000000000000815250611324565b610716611381565b61071e6113da565b61073c610729610a66565b6cfc6f7c40458122964d00000000611433565b80156107955760008060016101000a81548160ff0219169083151502179055507f7f26b83ff96e1f2b6a682f133852f6798a09c465da95921460cefb3847402498600160405161078c9190611cea565b60405180910390a15b50565b6107a0610f40565b6107a861158b565b565b600060c960009054906101000a900473ffffffffffffffffffffffffffffffffffffffff16905090565b6060603780546107e390612089565b80601f016020809104026020016040519081016040528092919081815260200182805461080f90612089565b801561085c5780601f106108315761010080835404028352916020019161085c565b820191906000526020600020905b81548152906001019060200180831161083f57829003601f168201915b5050505050905090565b600080610871610a66565b9050600061087f828661095b565b9050838110156108c4576040517f08c379a00000000000000000000000000000000000000000000000000000000081526004016108bb90611ee7565b60405180910390fd5b6108d18286868403610a6e565b60019250505092915050565b6000806108e8610a66565b90506108f5818585610cc5565b600191505092915050565b610908611021565b610910610f40565b61092161091b610a66565b82611433565b7fcb8241adb0c3fdb35b70c24ce35c5eb0c17af7431c99f827d44a445ca624176a816040516109509190611f47565b60405180910390a150565b6000603460008473ffffffffffffffffffffffffffffffffffffffff1673ffffffffffffffffffffffffffffffffffffffff16815260200190815260200160002060008373ffffffffffffffffffffffffffffffffffffffff1673ffffffffffffffffffffffffffffffffffffffff16815260200190815260200160002054905092915050565b6109ea610f40565b600073ffffffffffffffffffffffffffffffffffffffff168173ffffffffffffffffffffffffffffffffffffffff161415610a5a576040517f08c379a0000000000000000000000000000000000000000000000000000000008152600401610a5190611d87565b60405180910390fd5b610a638161123b565b50565b600033905090565b600073ffffffffffffffffffffffffffffffffffffffff168373ffffffffffffffffffffffffffffffffffffffff161415610ade576040517f08c379a0000000000000000000000000000000000000000000000000000000008152600401610ad590611ea7565b60405180910390fd5b600073ffffffffffffffffffffffffffffffffffffffff168273ffffffffffffffffffffffffffffffffffffffff161415610b4e576040517f08c379a0000000000000000000000000000000000000000000000000000000008152600401610b4590611da7565b60405180910390fd5b80603460008573ffffffffffffffffffffffffffffffffffffffff1673ffffffffffffffffffffffffffffffffffffffff16815260200190815260200160002060008473ffffffffffffffffffffffffffffffffffffffff1673ffffffffffffffffffffffffffffffffffffffff168152602001908152602001600020819055508173ffffffffffffffffffffffffffffffffffffffff168373ffffffffffffffffffffffffffffffffffffffff167f8c5be1e5ebec7d5bd14f71427d1e84f3dd0314c0f7b2291e5b200ac8c7c3b92583604051610c2c9190611f47565b60405180910390a3505050565b6000610c45848461095b565b90507fffffffffffffffffffffffffffffffffffffffffffffffffffffffffffffffff8114610cbf5781811015610cb1576040517f08c379a0000000000000000000000000000000000000000000000000000000008152600401610ca890611dc7565b60405180910390fd5b610cbe8484848403610a6e565b5b50505050565b600073ffffffffffffffffffffffffffffffffffffffff168373ffffffffffffffffffffffffffffffffffffffff161415610d35576040517f08c379a0000000000000000000000000000000000000000000000000000000008152600401610d2c90611e87565b60405180910390fd5b600073ffffffffffffffffffffffffffffffffffffffff168273ffffffffffffffffffffffffffffffffffffffff161415610da5576040517f08c379a0000000000000000000000000000000000000000000000000000000008152600401610d9c90611d27565b60405180910390fd5b610db08383836115ee565b6000603360008573ffffffffffffffffffffffffffffffffffffffff1673ffffffffffffffffffffffffffffffffffffffff16815260200190815260200160002054905081811015610e37576040517f08c379a0000000000000000000000000000000000000000000000000000000008152600401610e2e90611de7565b60405180910390fd5b818103603360008673ffffffffffffffffffffffffffffffffffffffff1673ffffffffffffffffffffffffffffffffffffffff1681526020019081526020016000208190555081603360008573ffffffffffffffffffffffffffffffffffffffff1673ffffffffffffffffffffffffffffffffffffffff168152602001908152602001600020600082825401925050819055508273ffffffffffffffffffffffffffffffffffffffff168473ffffffffffffffffffffffffffffffffffffffff167fddf252ad1be2c89b69c2b068fc378daa952ba7f163c4a11628f55a4df523b3ef84604051610f279190611f47565b60405180910390a3610f3a8484846115fe565b50505050565b610f48610a66565b73ffffffffffffffffffffffffffffffffffffffff16610f666107aa565b73ffffffffffffffffffffffffffffffffffffffff1614610fbc576040517f08c379a0000000000000000000000000000000000000000000000000000000008152600401610fb390611e47565b60405180910390fd5b565b610fc6611603565b6000606560006101000a81548160ff0219169083151502179055507f5db9ee0a495bf2e6ff9c91a7834c1ba4fdd244a5e8aa4e537bd38aeae4b073aa61100a610a66565b6040516110179190611cb4565b60405180910390a1565b61102961054c565b15611069576040517f08c379a000000000000000000000000000000000000000000000000000000000815260040161106090611e07565b60405180910390fd5b565b600073ffffffffffffffffffffffffffffffffffffffff168273ffffffffffffffffffffffffffffffffffffffff1614156110db576040517f08c379a00000000000000000000000000000000000000000000000000000000081526004016110d290611e67565b60405180910390fd5b6110e7826000836115ee565b6000603360008473ffffffffffffffffffffffffffffffffffffffff1673ffffffffffffffffffffffffffffffffffffffff1681526020019081526020016000205490508181101561116e576040517f08c379a000000000000000000000000000000000000000000000000000000000815260040161116590611d67565b60405180910390fd5b818103603360008573ffffffffffffffffffffffffffffffffffffffff1673ffffffffffffffffffffffffffffffffffffffff1681526020019081526020016000208190555081603560008282540392505081905550600073ffffffffffffffffffffffffffffffffffffffff168373ffffffffffffffffffffffffffffffffffffffff167fddf252ad1be2c89b69c2b068fc378daa952ba7f163c4a11628f55a4df523b3ef846040516112229190611f47565b60405180910390a3611236836000846115fe565b505050565b600060c960009054906101000a900473ffffffffffffffffffffffffffffffffffffffff1690508160c960006101000a81548173ffffffffffffffffffffffffffffffffffffffff021916908373ffffffffffffffffffffffffffffffffffffffff1602179055508173ffffffffffffffffffffffffffffffffffffffff168173ffffffffffffffffffffffffffffffffffffffff167f8be0079c531659141344cd1fd0a4f28419497f9722a3daafe3b4186f6b6457e060405160405180910390a35050565b6000808273ffffffffffffffffffffffffffffffffffffffff163b119050919050565b600060019054906101000a900460ff16611373576040517f08c379a000000000000000000000000000000000000000000000000000000000815260040161136a90611ec7565b60405180910390fd5b61137d828261164c565b5050565b600060019054906101000a900460ff166113d0576040517f08c379a00000000000000000000000000000000000000000000000000000000081526004016113c790611ec7565b60405180910390fd5b6113d86116cd565b565b600060019054906101000a900460ff16611429576040517f08c379a000000000000000000000000000000000000000000000000000000000815260040161142090611ec7565b60405180910390fd5b61143161172e565b565b600073ffffffffffffffffffffffffffffffffffffffff168273ffffffffffffffffffffffffffffffffffffffff1614156114a3576040517f08c379a000000000000000000000000000000000000000000000000000000000815260040161149a90611f07565b60405180910390fd5b6114af600083836115ee565b80603560008282546114c19190611f99565b9250508190555080603360008473ffffffffffffffffffffffffffffffffffffffff1673ffffffffffffffffffffffffffffffffffffffff168152602001908152602001600020600082825401925050819055508173ffffffffffffffffffffffffffffffffffffffff16600073ffffffffffffffffffffffffffffffffffffffff167fddf252ad1be2c89b69c2b068fc378daa952ba7f163c4a11628f55a4df523b3ef836040516115739190611f47565b60405180910390a3611587600083836115fe565b5050565b611593611021565b6001606560006101000a81548160ff0219169083151502179055507f62e78cea01bee320cd4e420270b5ea74000d11b0c9f74754ebdbfc544b05a2586115d7610a66565b6040516115e49190611cb4565b60405180910390a1565b6115f983838361179a565b505050565b505050565b61160b61054c565b61164a576040517f08c379a000000000000000000000000000000000000000000000000000000000815260040161164190611d47565b60405180910390fd5b565b600060019054906101000a900460ff1661169b576040517f08c379a000000000000000000000000000000000000000000000000000000000815260040161169290611ec7565b60405180910390fd5b81603690805190602001906116b19291906117f7565b5080603790805190602001906116c89291906117f7565b505050565b600060019054906101000a900460ff1661171c576040517f08c379a000000000000000000000000000000000000000000000000000000000815260040161171390611ec7565b60405180910390fd5b61172c611727610a66565b61123b565b565b600060019054906101000a900460ff1661177d576040517f08c379a000000000000000000000000000000000000000000000000000000000815260040161177490611ec7565b60405180910390fd5b6000606560006101000a81548160ff021916908315150217905550565b6117a58383836117f2565b6117ad61054c565b156117ed576040517f08c379a00000000000000000000000000000000000000000000000000000000081526004016117e490611f27565b60405180910390fd5b505050565b505050565b82805461180390612089565b90600052602060002090601f016020900481019282611825576000855561186c565b82601f1061183e57805160ff191683800117855561186c565b8280016001018555821561186c579182015b8281111561186b578251825591602001919060010190611850565b5b509050611879919061187d565b5090565b5b8082111561189657600081600090555060010161187e565b5090565b6000813590506118a9816125ab565b92915050565b6000813590506118be816125c2565b92915050565b6000602082840312156118d657600080fd5b60006118e48482850161189a565b91505092915050565b6000806040838503121561190057600080fd5b600061190e8582860161189a565b925050602061191f8582860161189a565b9150509250929050565b60008060006060848603121561193e57600080fd5b600061194c8682870161189a565b935050602061195d8682870161189a565b925050604061196e868287016118af565b9150509250925092565b6000806040838503121561198b57600080fd5b60006119998582860161189a565b92505060206119aa858286016118af565b9150509250929050565b6000602082840312156119c657600080fd5b60006119d4848285016118af565b91505092915050565b6119e681611fef565b82525050565b6119f581612001565b82525050565b611a0481612044565b82525050565b6000611a1582611f7d565b611a1f8185611f88565b9350611a2f818560208601612056565b611a3881612119565b840191505092915050565b6000611a50602383611f88565b9150611a5b8261212a565b604082019050919050565b6000611a73601483611f88565b9150611a7e82612179565b602082019050919050565b6000611a96602283611f88565b9150611aa1826121a2565b604082019050919050565b6000611ab9602683611f88565b9150611ac4826121f1565b604082019050919050565b6000611adc602283611f88565b9150611ae782612240565b604082019050919050565b6000611aff601d83611f88565b9150611b0a8261228f565b602082019050919050565b6000611b22602683611f88565b9150611b2d826122b8565b604082019050919050565b6000611b45601083611f88565b9150611b5082612307565b602082019050919050565b6000611b68602e83611f88565b9150611b7382612330565b604082019050919050565b6000611b8b602083611f88565b9150611b968261237f565b602082019050919050565b6000611bae602183611f88565b9150611bb9826123a8565b604082019050919050565b6000611bd1602583611f88565b9150611bdc826123f7565b604082019050919050565b6000611bf4602483611f88565b9150611bff82612446565b604082019050919050565b6000611c17602b83611f88565b9150611c2282612495565b604082019050919050565b6000611c3a602583611f88565b9150611c45826124e4565b604082019050919050565b6000611c5d601f83611f88565b9150611c6882612533565b602082019050919050565b6000611c80602a83611f88565b9150611c8b8261255c565b604082019050919050565b611c9f8161202d565b82525050565b611cae81612037565b82525050565b6000602082019050611cc960008301846119dd565b92915050565b6000602082019050611ce460008301846119ec565b92915050565b6000602082019050611cff60008301846119fb565b92915050565b60006020820190508181036000830152611d1f8184611a0a565b905092915050565b60006020820190508181036000830152611d4081611a43565b9050919050565b60006020820190508181036000830152611d6081611a66565b9050919050565b60006020820190508181036000830152611d8081611a89565b9050919050565b60006020820190508181036000830152611da081611aac565b9050919050565b60006020820190508181036000830152611dc081611acf565b9050919050565b60006020820190508181036000830152611de081611af2565b9050919050565b60006020820190508181036000830152611e0081611b15565b9050919050565b60006020820190508181036000830152611e2081611b38565b9050919050565b60006020820190508181036000830152611e4081611b5b565b9050919050565b60006020820190508181036000830152611e6081611b7e565b9050919050565b60006020820190508181036000830152611e8081611ba1565b9050919050565b60006020820190508181036000830152611ea081611bc4565b9050919050565b60006020820190508181036000830152611ec081611be7565b9050919050565b60006020820190508181036000830152611ee081611c0a565b9050919050565b60006020820190508181036000830152611f0081611c2d565b9050919050565b60006020820190508181036000830152611f2081611c50565b9050919050565b60006020820190508181036000830152611f4081611c73565b9050919050565b6000602082019050611f5c6000830184611c96565b92915050565b6000602082019050611f776000830184611ca5565b92915050565b600081519050919050565b600082825260208201905092915050565b6000611fa48261202d565b9150611faf8361202d565b9250827fffffffffffffffffffffffffffffffffffffffffffffffffffffffffffffffff03821115611fe457611fe36120bb565b5b828201905092915050565b6000611ffa8261200d565b9050919050565b60008115159050919050565b600073ffffffffffffffffffffffffffffffffffffffff82169050919050565b6000819050919050565b600060ff82169050919050565b600061204f82612037565b9050919050565b60005b83811015612074578082015181840152602081019050612059565b83811115612083576000848401525b50505050565b600060028204905060018216806120a157607f821691505b602082108114156120b5576120b46120ea565b5b50919050565b7f4e487b7100000000000000000000000000000000000000000000000000000000600052601160045260246000fd5b7f4e487b7100000000000000000000000000000000000000000000000000000000600052602260045260246000fd5b6000601f19601f8301169050919050565b7f45524332303a207472616e7366657220746f20746865207a65726f206164647260008201527f6573730000000000000000000000000000000000000000000000000000000000602082015250565b7f5061757361626c653a206e6f7420706175736564000000000000000000000000600082015250565b7f45524332303a206275726e20616d6f756e7420657863656564732062616c616e60008201527f6365000000000000000000000000000000000000000000000000000000000000602082015250565b7f4f776e61626c653a206e6577206f776e657220697320746865207a65726f206160008201527f6464726573730000000000000000000000000000000000000000000000000000602082015250565b7f45524332303a20617070726f766520746f20746865207a65726f20616464726560008201527f7373000000000000000000000000000000000000000000000000000000000000602082015250565b7f45524332303a20696e73756666696369656e7420616c6c6f77616e6365000000600082015250565b7f45524332303a207472616e7366657220616d6f756e742065786365656473206260008201527f616c616e63650000000000000000000000000000000000000000000000000000602082015250565b7f5061757361626c653a2070617573656400000000000000000000000000000000600082015250565b7f496e697469616c697a61626c653a20636f6e747261637420697320616c72656160008201527f647920696e697469616c697a6564000000000000000000000000000000000000602082015250565b7f4f776e61626c653a2063616c6c6572206973206e6f7420746865206f776e6572600082015250565b7f45524332303a206275726e2066726f6d20746865207a65726f2061646472657360008201527f7300000000000000000000000000000000000000000000000000000000000000602082015250565b7f45524332303a207472616e736665722066726f6d20746865207a65726f20616460008201527f6472657373000000000000000000000000000000000000000000000000000000602082015250565b7f45524332303a20617070726f76652066726f6d20746865207a65726f2061646460008201527f7265737300000000000000000000000000000000000000000000000000000000602082015250565b7f496e697469616c697a61626c653a20636f6e7472616374206973206e6f74206960008201527f6e697469616c697a696e67000000000000000000000000000000000000000000602082015250565b7f45524332303a2064656372656173656420616c6c6f77616e63652062656c6f7760008201527f207a65726f000000000000000000000000000000000000000000000000000000602082015250565b7f45524332303a206d696e7420746f20746865207a65726f206164647265737300600082015250565b7f45524332305061757361626c653a20746f6b656e207472616e7366657220776860008201527f696c652070617573656400000000000000000000000000000000000000000000602082015250565b6125b481611fef565b81146125bf57600080fd5b50565b6125cb8161202d565b81146125d657600080fd5b5056fea26469706673582212207c37d566ab35dbff96f9c88c76a62190dcd37e4ec4b0b205b87607591cf6919264736f6c63430008040033",
  "devdoc": {
    "kind": "dev",
    "methods": {
      "allowance(address,address)": {
        "details": "See {IERC20-allowance}."
      },
      "approve(address,uint256)": {
        "details": "See {IERC20-approve}. NOTE: If `amount` is the maximum `uint256`, the allowance is not updated on `transferFrom`. This is semantically equivalent to an infinite approval. Requirements: - `spender` cannot be the zero address."
      },
      "balanceOf(address)": {
        "details": "See {IERC20-balanceOf}."
      },
      "decimals()": {
        "details": "Returns the number of decimals used to get its user representation. For example, if `decimals` equals `2`, a balance of `505` tokens should be displayed to a user as `5.05` (`505 / 10 ** 2`). Tokens usually opt for a value of 18, imitating the relationship between Ether and Wei. This is the value {ERC20} uses, unless this function is overridden; NOTE: This information is only used for _display_ purposes: it in no way affects any of the arithmetic of the contract, including {IERC20-balanceOf} and {IERC20-transfer}."
      },
      "decreaseAllowance(address,uint256)": {
        "details": "Atomically decreases the allowance granted to `spender` by the caller. This is an alternative to {approve} that can be used as a mitigation for problems described in {IERC20-approve}. Emits an {Approval} event indicating the updated allowance. Requirements: - `spender` cannot be the zero address. - `spender` must have allowance for the caller of at least `subtractedValue`."
      },
      "increaseAllowance(address,uint256)": {
        "details": "Atomically increases the allowance granted to `spender` by the caller. This is an alternative to {approve} that can be used as a mitigation for problems described in {IERC20-approve}. Emits an {Approval} event indicating the updated allowance. Requirements: - `spender` cannot be the zero address."
      },
      "name()": {
        "details": "Returns the name of the token."
      },
      "owner()": {
        "details": "Returns the address of the current owner."
      },
      "paused()": {
        "details": "Returns true if the contract is paused, and false otherwise."
      },
      "renounceOwnership()": {
        "details": "Leaves the contract without owner. It will not be possible to call `onlyOwner` functions anymore. Can only be called by the current owner. NOTE: Renouncing ownership will leave the contract without an owner, thereby removing any functionality that is only available to the owner."
      },
      "symbol()": {
        "details": "Returns the symbol of the token, usually a shorter version of the name."
      },
      "totalSupply()": {
        "details": "See {IERC20-totalSupply}."
      },
      "transfer(address,uint256)": {
        "details": "See {IERC20-transfer}. Requirements: - `to` cannot be the zero address. - the caller must have a balance of at least `amount`."
      },
      "transferFrom(address,address,uint256)": {
        "details": "See {IERC20-transferFrom}. Emits an {Approval} event indicating the updated allowance. This is not required by the EIP. See the note at the beginning of {ERC20}. NOTE: Does not update the allowance if the current allowance is the maximum `uint256`. Requirements: - `from` and `to` cannot be the zero address. - `from` must have a balance of at least `amount`. - the caller must have allowance for ``from``'s tokens of at least `amount`."
      },
      "transferOwnership(address)": {
        "details": "Transfers ownership of the contract to a new account (`newOwner`). Can only be called by the current owner."
      }
    },
    "version": 1
  },
  "userdoc": {
    "kind": "user",
    "methods": {},
    "version": 1
  },
  "storageLayout": {
    "storage": [
      {
        "astId": 138,
        "contract": "contracts/vndc.sol:VNDC",
        "label": "_initialized",
        "offset": 0,
        "slot": "0",
        "type": "t_uint8"
      },
      {
        "astId": 141,
        "contract": "contracts/vndc.sol:VNDC",
        "label": "_initializing",
        "offset": 1,
        "slot": "0",
        "type": "t_bool"
      },
      {
        "astId": 1527,
        "contract": "contracts/vndc.sol:VNDC",
        "label": "__gap",
        "offset": 0,
        "slot": "1",
        "type": "t_array(t_uint256)50_storage"
      },
      {
        "astId": 446,
        "contract": "contracts/vndc.sol:VNDC",
        "label": "_balances",
        "offset": 0,
        "slot": "51",
        "type": "t_mapping(t_address,t_uint256)"
      },
      {
        "astId": 452,
        "contract": "contracts/vndc.sol:VNDC",
        "label": "_allowances",
        "offset": 0,
        "slot": "52",
        "type": "t_mapping(t_address,t_mapping(t_address,t_uint256))"
      },
      {
        "astId": 454,
        "contract": "contracts/vndc.sol:VNDC",
        "label": "_totalSupply",
        "offset": 0,
        "slot": "53",
        "type": "t_uint256"
      },
      {
        "astId": 456,
        "contract": "contracts/vndc.sol:VNDC",
        "label": "_name",
        "offset": 0,
        "slot": "54",
        "type": "t_string_storage"
      },
      {
        "astId": 458,
        "contract": "contracts/vndc.sol:VNDC",
        "label": "_symbol",
        "offset": 0,
        "slot": "55",
        "type": "t_string_storage"
      },
      {
        "astId": 1038,
        "contract": "contracts/vndc.sol:VNDC",
        "label": "__gap",
        "offset": 0,
        "slot": "56",
        "type": "t_array(t_uint256)45_storage"
      },
      {
        "astId": 321,
        "contract": "contracts/vndc.sol:VNDC",
        "label": "_paused",
        "offset": 0,
        "slot": "101",
        "type": "t_bool"
      },
      {
        "astId": 426,
        "contract": "contracts/vndc.sol:VNDC",
        "label": "__gap",
        "offset": 0,
        "slot": "102",
        "type": "t_array(t_uint256)49_storage"
      },
      {
        "astId": 1176,
        "contract": "contracts/vndc.sol:VNDC",
        "label": "__gap",
        "offset": 0,
        "slot": "151",
        "type": "t_array(t_uint256)50_storage"
      },
      {
        "astId": 10,
        "contract": "contracts/vndc.sol:VNDC",
        "label": "_owner",
        "offset": 0,
        "slot": "201",
        "type": "t_address"
      },
      {
        "astId": 130,
        "contract": "contracts/vndc.sol:VNDC",
        "label": "__gap",
        "offset": 0,
        "slot": "202",
        "type": "t_array(t_uint256)49_storage"
      }
    ],
    "types": {
      "t_address": {
        "encoding": "inplace",
        "label": "address",
        "numberOfBytes": "20"
      },
      "t_array(t_uint256)45_storage": {
        "base": "t_uint256",
        "encoding": "inplace",
        "label": "uint256[45]",
        "numberOfBytes": "1440"
      },
      "t_array(t_uint256)49_storage": {
        "base": "t_uint256",
        "encoding": "inplace",
        "label": "uint256[49]",
        "numberOfBytes": "1568"
      },
      "t_array(t_uint256)50_storage": {
        "base": "t_uint256",
        "encoding": "inplace",
        "label": "uint256[50]",
        "numberOfBytes": "1600"
      },
      "t_bool": {
        "encoding": "inplace",
        "label": "bool",
        "numberOfBytes": "1"
      },
      "t_mapping(t_address,t_mapping(t_address,t_uint256))": {
        "encoding": "mapping",
        "key": "t_address",
        "label": "mapping(address => mapping(address => uint256))",
        "numberOfBytes": "32",
        "value": "t_mapping(t_address,t_uint256)"
      },
      "t_mapping(t_address,t_uint256)": {
        "encoding": "mapping",
        "key": "t_address",
        "label": "mapping(address => uint256)",
        "numberOfBytes": "32",
        "value": "t_uint256"
      },
      "t_string_storage": {
        "encoding": "bytes",
        "label": "string",
        "numberOfBytes": "32"
      },
      "t_uint256": {
        "encoding": "inplace",
        "label": "uint256",
        "numberOfBytes": "32"
      },
      "t_uint8": {
        "encoding": "inplace",
        "label": "uint8",
        "numberOfBytes": "1"
      }
    }
  }
}